:100000000C942A000C943F000C943F000C943F0089
:100010000C943F000C943F000C943F000C943F0064
:100020000C943F000C943F000C943F000C943F0054
:100030000C943F000C943F000C943F000C943F0044
:100040000C943F000C943F000C943F000C943F0034
:100050000C943F0011241FBECFE5D8E0DEBFCDBF1A
:1000600010E0A0E6B0E0E8EDFDE102C005900D92E1
:10007000A836B107D9F70E9441000C94EA0E0C94FF
:1000800000000F931F93DF93CF93CDB7DEB7C05B14
:10009000D0400FB6F894DEBF0FBECDBF87E390E02F
:1000A0002FEFFC01208388E390E02FEFFC012083F9
:1000B00080E090E0AAEFB3E489879A87AB87BC879A
:1000C00069857A858B859C8520E030E04AE753E49A
:1000D0000E94470BDC01CB018D879E87AF87B88BD1
:1000E00011E06D857E858F85988920E030E040E8BD
:1000F0005FE30E94A10C88230CF010E0112329F08B
:1001000081E090E09A8B898B46C011E06D857E85F9
:100110008F85988920E03FEF4FE757E40E94410C1C
:1001200018160CF010E0112361F169857A858B8532
:100130009C8520E030E040E251E40E94470BDC0166
:10014000CB01BC01CD010E947309DC01CB019A8B6C
:10015000898B12C089E190E09C8B8B8B8B899C8969
:100160008C01C8010197F1F78C011C8B0B8B8989DD
:100170009A8901979A8B898B89899A89009751F777
:1001800017C06D857E858F8598890E947309DC0173
:10019000CB019A8B898B89899A899E8B8D8B8D89CE
:1001A0009E898C01F8013197F1F78F011E8B0D8B21
:1001B00088E390E0FC01108280E090E0AAEFB3E4D5
:1001C0008F8B988FA98FBA8F6F89788D898D9A8D33
:1001D00020E030E04AE753E40E94470BDC01CB010A
:1001E0008B8F9C8FAD8FBE8F11E06B8D7C8D8D8D35
:1001F0009E8D20E030E040E85FE30E94A10C882360
:100200000CF010E0112329F081E090E098A38F8F8B
:1002100046C011E06B8D7C8D8D8D9E8D20E03FEF73
:100220004FE757E40E94410C18160CF010E0112320
:1002300061F16F89788D898D9A8D20E030E040E200
:1002400051E40E94470BDC01CB01BC01CD010E94AF
:100250007309DC01CB0198A38F8F12C089E190E074
:100260009AA389A389A19AA18C01C8010197F1F7EA
:100270008C011AA309A38F8D98A1019798A38F8F42
:100280008F8D98A1009751F717C06B8D7C8D8D8D48
:100290009E8D0E947309DC01CB0198A38F8F8F8DF7
:1002A00098A19CA38BA38BA19CA18C01F8013197F1
:1002B000F1F78F011CA30BA388E390E020E8FC0179
:1002C000208380E090E0AAEFB3E48DA39EA3AFA3C8
:1002D000B8A76DA17EA18FA198A520E030E04AE7E4
:1002E00053E40E94470BDC01CB0189A79AA7ABA777
:1002F000BCA711E069A57AA58BA59CA520E030E0FC
:1003000040E85FE30E94A10C88230CF010E0112369
:1003100029F081E090E09EA78DA746C011E069A575
:100320007AA58BA59CA520E03FEF4FE757E40E94FC
:10033000410C18160CF010E0112361F16DA17EA1A3
:100340008FA198A520E030E040E251E40E94470BE5
:10035000DC01CB01BC01CD010E947309DC01CB01A2
:100360009EA78DA712C089E190E098AB8FA78FA5BB
:1003700098A98C01C8010197F1F78C0118AB0FA760
:100380008DA59EA501979EA78DA78DA59EA50097DB
:1003900051F717C069A57AA58BA59CA50E94730982
:1003A000DC01CB019EA78DA78DA59EA59AAB89AB3D
:1003B00089A99AA98C01F8013197F1F78F011AAB3D
:1003C00009AB88E390E0FC01108280E090E0AAEFA6
:1003D000B3E48BAB9CABADABBEAB6BA97CA98DA9D9
:1003E0009EA920E030E04AE753E40E94470BDC017D
:1003F000CB018FAB98AFA9AFBAAF11E06FA978ADC1
:1004000089AD9AAD20E030E040E85FE30E94A10CA6
:1004100088230CF010E0112329F081E090E09CAFDC
:100420008BAF46C011E06FA978AD89AD9AAD20E0E1
:100430003FEF4FE757E40E94410C18160CF010E014
:10044000112361F16BA97CA98DA99EA920E030E060
:1004500040E251E40E94470BDC01CB01BC01CD011D
:100460000E947309DC01CB019CAF8BAF12C089E104
:1004700090E09EAF8DAF8DAD9EAD8C01C801019710
:10048000F1F78C011EAF0DAF8BAD9CAD01979CAF0A
:100490008BAF8BAD9CAD009751F720C06FA978ADA5
:1004A00089AD9AAD0E947309DC01CB019CAF8BAF83
:1004B0002BAD3CADCE01CF96FC0131832083CE0124
:1004C000CF96FC01808191818C01C8010197F1F7E1
:1004D0008C01CE01CF96FC011183008388E390E06C
:1004E00026E1FC0120839E012F5B3F4F80E090E0DE
:1004F000AAEFB3E4F90180839183A283B3838E01D1
:100500000B5B1F4FCE018F5B9F4FFC0160817181A0
:100510008281938120E030E04AE753E40E94470B58
:10052000DC01CB01F80180839183A283B383CE01E8
:100530008B5B9F4F11E0FC0160817181828193810F
:1005400020E030E040E85FE30E94A10C88230CF03B
:1005500010E0112349F0CE01875B9F4F21E030E08E
:10056000FC013183208374C0CE018B5B9F4F11E06F
:10057000FC01608171818281938120E03FEF4FE730
:1005800057E40E94410C18160CF010E0112309F4F6
:100590004DC0CE018F5B9F4FFC01608171818281D4
:1005A000938120E030E040E251E40E94470BDC01FF
:1005B000CB018E01075B1F4FBC01CD010E94730967
:1005C000DC01CB01F8019183808327C0CE01855BDC
:1005D0009F4F29E130E0FC0131832083CE01855B10
:1005E0009F4FFC01808191818C01C8010197F1F737
:1005F0008C01CE01855B9F4FFC0111830083CE01EE
:10060000875B9F4F9E01275B3F4FF901208131811E
:1006100021503040FC0131832083CE01875B9F4F06
:10062000FC0180819181009789F62FC08E01075BC4
:100630001F4FCE018B5B9F4FFC01608171818281D6
:1006400093810E947309DC01CB01F80191838083BF
:10065000CE01835B9F4F9E01275B3F4FF9012081B5
:100660003181FC0131832083CE01835B9F4FFC01EC
:10067000808191818C01C8010197F1F78C01CE0135
:10068000835B9F4FFC011183008388E390E0FC01B2
:1006900010829E01215B3F4F80E090E0AAEFB3E41F
:1006A000F90180839183A283B3838E010D5A1F4F7A
:1006B000CE01815B9F4FFC016081718182819381BA
:1006C00020E030E04AE753E40E94470BDC01CB0115
:1006D000F80180839183A283B383CE018D5A9F4F0B
:1006E00011E0FC01608171818281938120E030E022
:1006F00040E85FE30E94A10C88230CF010E0112376
:1007000049F0CE01895A9F4F21E030E0FC0131834E
:10071000208374C0CE018D5A9F4F11E0FC0160818F
:1007200071818281938120E03FEF4FE757E40E947F
:10073000410C18160CF010E0112309F44DC0CE0145
:10074000815B9F4FFC01608171818281938120E0F8
:1007500030E040E251E40E94470BDC01CB018E0106
:10076000095A1F4FBC01CD010E947309DC01CB0166
:10077000F8019183808327C0CE01875A9F4F29E1DA
:1007800030E0FC0131832083CE01875A9F4FFC016A
:10079000808191818C01C8010197F1F78C01CE0114
:1007A000875A9F4FFC0111830083CE01895A9F4FC6
:1007B0009E01295A3F4FF90120813181215030405B
:1007C000FC0131832083CE01895A9F4FFC01808137
:1007D0009181009789F62FC08E01095A1F4FCE01D3
:1007E0008D5A9F4FFC0160817181828193810E94AB
:1007F0007309DC01CB01F80191838083CE01855A16
:100800009F4F9E01295A3F4FF90120813181FC0100
:1008100031832083CE01855A9F4FFC0180819181D5
:100820008C01C8010197F1F78C01CE01855A9F4FC9
:10083000FC011183008388E390E02AEAFC01208315
:100840009E01235A3F4F80E090E0AAEFB3E4F90104
:1008500080839183A283B3838E010F591F4FCE01F2
:10086000835A9F4FFC01608171818281938120E0D6
:1008700030E04AE753E40E94470BDC01CB01F8016A
:1008800080839183A283B383CE018F599F4F11E060
:10089000FC01608171818281938120E030E040E839
:1008A0005FE30E94A10C88230CF010E0112349F0B3
:1008B000CE018B599F4F21E030E0FC013183208332
:1008C00074C0CE018F599F4F11E0FC01608171818E
:1008D0008281938120E03FEF4FE757E40E94410C73
:1008E00018160CF010E0112309F44DC0CE01835A04
:1008F0009F4FFC01608171818281938120E030E013
:1009000040E251E40E94470BDC01CB018E010B5900
:100910001F4FBC01CD010E947309DC01CB01F8011E
:100920009183808327C0CE0189599F4F29E130E010
:10093000FC0131832083CE0189599F4FFC018081C6
:1009400091818C01C8010197F1F78C01CE01895981
:100950009F4FFC0111830083CE018B599F4F9E0155
:100960002B593F4FF9012081318121503040FC014A
:1009700031832083CE018B599F4FFC01808191816F
:10098000009789F62FC08E010B591F4FCE018F594A
:100990009F4FFC0160817181828193810E94730964
:1009A000DC01CB01F80191838083CE0187599F4FF1
:1009B0009E012B593F4FF90120813181FC01318388
:1009C0002083CE0187599F4FFC01808191818C014A
:1009D000C8010197F1F78C01CE0187599F4FFC01A7
:1009E0001183008388E390E025E5FC0120839E01CC
:1009F00025593F4F80E090E0AAEFB3E4F9018083EE
:100A00009183A283B3838E0101591F4FCE01855973
:100A10009F4FFC01608171818281938120E030E0F1
:100A20004AE753E40E94470BDC01CB01F8018083C5
:100A30009183A283B383CE0181599F4F11E0FC01C2
:100A4000608171818281938120E030E040E85FE342
:100A50000E94A10C88230CF010E0112349F0CE0174
:100A60008D589F4F21E030E0FC013183208374C01A
:100A7000CE0181599F4F11E0FC016081718182811B
:100A8000938120E03FEF4FE757E40E94410C181696
:100A90000CF010E0112309F44DC0CE0185599F4F91
:100AA000FC01608171818281938120E030E040E22D
:100AB00051E40E94470BDC01CB018E010D581F4F02
:100AC000BC01CD010E947309DC01CB01F8019183C7
:100AD000808327C0CE018B589F4F29E130E0FC0175
:100AE00031832083CE018B589F4FFC0180819181FF
:100AF0008C01C8010197F1F78C01CE018B589F4FF3
:100B0000FC0111830083CE018D589F4F9E012D580B
:100B10003F4FF9012081318121503040FC01318368
:100B20002083CE018D589F4FFC01808191810097D9
:100B300089F62FC08E010D581F4FCE0181599F4F4E
:100B4000FC0160817181828193810E947309DC01C3
:100B5000CB01F80191838083CE0189589F4F9E017C
:100B60002D583F4FF90120813181FC0131832083D1
:100B7000CE0189589F4FFC01808191818C01C80171
:100B80000197F1F78C01CE0189589F4FFC01118329
:100B9000008381E090E09A838983DDC088E390E060
:100BA0002981FC0120839E0127583F4F80E090E07F
:100BB000AAEFB3E4F90180839183A283B3838E010A
:100BC00003581F4FCE0187589F4FFC0160817181F0
:100BD0008281938120E030E04AE753E40E94470B92
:100BE000DC01CB01F80180839183A283B383CE0122
:100BF00083589F4F11E0FC01608171818281938154
:100C000020E030E040E85FE30E94A10C88230CF074
:100C100010E0112349F0CE018F579F4F21E030E0C3
:100C2000FC013183208374C0CE0183589F4F11E0B3
:100C3000FC01608171818281938120E03FEF4FE769
:100C400057E40E94410C18160CF010E0112309F42F
:100C50004DC0CE0187589F4FFC0160817181828118
:100C6000938120E030E040E251E40E94470BDC0138
:100C7000CB018E010F571F4FBC01CD010E9473099C
:100C8000DC01CB01F8019183808327C0CE018D5711
:100C90009F4F29E130E0FC0131832083CE018D5745
:100CA0009F4FFC01808191818C01C8010197F1F770
:100CB0008C01CE018D579F4FFC0111830083CE0123
:100CC0008F579F4F9E012F573F4FF9012081318150
:100CD00021503040FC0131832083CE018F579F4F3C
:100CE000FC0180819181009789F62FC08E010F57FA
:100CF0001F4FCE0183589F4FFC016081718182811B
:100D000093810E947309DC01CB01F80191838083F8
:100D1000CE018B579F4F9E012F573F4FF9012081E6
:100D20003181FC0131832083CE018B579F4FFC0121
:100D3000808191818C01C8010197F1F78C01CE016E
:100D40008B579F4FFC011183008389819A81880F03
:100D5000991F9A83898389819A81813891050CF43E
:100D60001DCF80E490E09C838B83E0C088E390E01B
:100D70002B81FC0120839E0129573F4F80E090E0AA
:100D8000AAEFB3E4F90180839183A283B3838E0138
:100D900005571F4FCE0189579F4FFC01608171811C
:100DA0008281938120E030E04AE753E40E94470BC0
:100DB000DC01CB01F80180839183A283B383CE0150
:100DC00085579F4F11E0FC01608171818281938181
:100DD00020E030E040E85FE30E94A10C88230CF0A3
:100DE00010E0112349F0CE0181579F4F21E030E000
:100DF000FC013183208374C0CE0185579F4F11E0E1
:100E0000FC01608171818281938120E03FEF4FE797
:100E100057E40E94410C18160CF010E0112309F45D
:100E20004DC0CE0189579F4FFC0160817181828145
:100E3000938120E030E040E251E40E94470BDC0166
:100E4000CB018E0101571F4FBC01CD010E947309D8
:100E5000DC01CB01F8019183808327C0CE018F563E
:100E60009F4F29E130E0FC0131832083CE018F5672
:100E70009F4FFC01808191818C01C8010197F1F79E
:100E80008C01CE018F569F4FFC0111830083CE0150
:100E900081579F4F9E0121573F4FF901208131819A
:100EA00021503040FC0131832083CE0181579F4F78
:100EB000FC0180819181009789F62FC08E01015736
:100EC0001F4FCE0185579F4FFC0160817181828148
:100ED00093810E947309DC01CB01F8019183808327
:100EE000CE018D569F4F9E0121573F4FF901208122
:100EF0003181FC0131832083CE018D569F4FFC014F
:100F0000808191818C01C8010197F1F78C01CE019C
:100F10008D569F4FFC01118300838B819C81992307
:100F20000CF40196959587959C838B838B819C818E
:100F3000181619060CF41ACF81E090E09E838D8379
:100F4000DEC088E390E02D812095FC0120839E0186
:100F50002B563F4F80E090E0AAEFB3E4F901808385
:100F60009183A283B3838E0107561F4FCE018B5608
:100F70009F4FFC01608171818281938120E030E08C
:100F80004AE753E40E94470BDC01CB01F801808360
:100F90009183A283B383CE0187569F4F11E0FC015A
:100FA000608171818281938120E030E040E85FE3DD
:100FB0000E94A10C88230CF010E0112349F0CE010F
:100FC00083569F4F21E030E0FC013183208374C0C1
:100FD000CE0187569F4F11E0FC01608171818281B3
:100FE000938120E03FEF4FE757E40E94410C181631
:100FF0000CF010E0112309F44DC0CE018B569F4F29
:10100000FC01608171818281938120E030E040E2C7
:1010100051E40E94470BDC01CB018E0103561F4FA8
:10102000BC01CD010E947309DC01CB01F801918361
:10103000808327C0CE0181569F4F29E130E0FC011B
:1010400031832083CE0181569F4FFC0180819181A5
:101050008C01C8010197F1F78C01CE0181569F4F99
:10106000FC0111830083CE0183569F4F9E012356BE
:101070003F4FF9012081318121503040FC01318303
:101080002083CE0183569F4FFC0180819181009780
:1010900089F62FC08E0103561F4FCE0187569F4FF2
:1010A000FC0160817181828193810E947309DC015E
:1010B000CB01F80191838083CE018F559F4F9E0114
:1010C00023563F4FF90120813181FC013183208378
:1010D000CE018F559F4FFC01808191818C01C80109
:1010E0000197F1F78C01CE018F559F4FFC011183C1
:1010F00000838D819E81880F991F9E838D838D81B2
:101100009E81813891050CF41CCF80E490E0988793
:101110008F83E1C088E390E02F812095FC0120833C
:101120009E012D553F4F80E090E0AAEFB3E4F90116
:1011300080839183A283B3838E0109551F4FCE0113
:101140008D559F4FFC01608171818281938120E0E8
:1011500030E04AE753E40E94470BDC01CB01F80181
:1011600080839183A283B383CE0189559F4F11E081
:10117000FC01608171818281938120E030E040E850
:101180005FE30E94A10C88230CF010E0112349F0CA
:10119000CE0185559F4F21E030E0FC013183208353
:1011A00074C0CE0189559F4F11E0FC0160817181AF
:1011B0008281938120E03FEF4FE757E40E94410C8A
:1011C00018160CF010E0112309F44DC0CE018D5516
:1011D0009F4FFC01608171818281938120E030E02A
:1011E00040E251E40E94470BDC01CB018E01055522
:1011F0001F4FBC01CD010E947309DC01CB01F80136
:101200009183808327C0CE0183559F4F29E130E031
:10121000FC0131832083CE0183559F4FFC018081E7
:1012200091818C01C8010197F1F78C01CE018355A2
:101230009F4FFC0111830083CE0185559F4F9E0176
:1012400025553F4FF9012081318121503040FC016B
:1012500031832083CE0185559F4FFC018081918190
:10126000009789F62FC08E0105551F4FCE01895575
:101270009F4FFC0160817181828193810E9473097B
:10128000DC01CB01F80191838083CE0181559F4F12
:101290009E0125553F4FF90120813181FC013183A9
:1012A0002083CE0181559F4FFC01808191818C016B
:1012B000C8010197F1F78C01CE0181559F4FFC01C8
:1012C000118300838F81988599230CF4019695955D
:1012D000879598878F838F819885181619060CF447
:1012E00019CF0C945300EF92FF920F931F937B0141
:1012F0008C0120E030E040E05FE40E94710C87FD4B
:1013000011C0C801B70120E030E040E05FE40E9476
:10131000160B0E94D10C9B01AC0120503040404084
:10132000504806C0C801B7010E94D10C9B01AC0116
:10133000B901CA011F910F91FF90EF900895A0E0AD
:10134000B0E0E5EAF9E00C94B70EFC01EA01808117
:10135000823008F438C1DB019C91923008F430C12E
:10136000843059F4943009F02EC1918111968C91FA
:101370001197981709F021C126C1943009F420C1B2
:101380009230B1F4823009F01EC1CA01AF0128E0E9
:10139000DA010D90AD01DC010D92CD012150C1F7B4
:1013A000DB0111968C9111979181892389830AC160
:1013B000823009F405C1C280D380DB0112966D90A2
:1013C0007C90139724813581468157811496ED9046
:1013D000FD900D911C911797C601861997095C0124
:1013E00097FF04C0AA24BB24A81AB90AB0E2AB161E
:1013F000B1040CF061C0181619066CF537014801EC
:101400000A2C04C096948794779467940A94D2F730
:1014100081E090E0A0E0B0E00A2C04C0880F991FA2
:10142000AA1FBB1F0A94D2F70197A109B1098E2107
:101430009F21A023B123EE24FF248701E39400978A
:10144000A105B10519F4EE24FF248701E628F72849
:10145000082919293CC00097D1F1CA0CDB1C3901BD
:101460004A010A2C04C096948794779467940A944E
:10147000D2F781E090E0A0E0B0E00A2C04C0880F31
:10148000991FAA1FBB1F0A94D2F70197A109B1099E
:1014900082239323A423B52321E030E040E050E0F1
:1014A0000097A105B10519F420E030E0A901262933
:1014B0003729482959290BC06C147D0424F4EE24E3
:1014C000FF24870104C0630120E030E0A90181818D
:1014D000FB019181891709F445C0882349F0D8019F
:1014E000C701821B930BA40BB50B9C01AD0104C07B
:1014F0002E193F09400B510B57FD04C01982DB82A6
:10150000CA820BC081E08983DB82CA8250954095F4
:10151000309521953F4F4F4F5F4F2C833D834E8336
:101520005F830DC0880F991FAA1FBB1F8C839D83EB
:10153000AE83BF838A819B8101979B838A838C8141
:101540009D81AE81BF819C01AD0121503040404062
:1015500050402F3FEFEF3E07EFEF4E07EFE35E0700
:1015600008F30BC08983DB82CA822E0D3F1D401F0A
:10157000511F2C833D834E835F8383E088832C81BE
:101580003D814E815F8157FF1DC0DA01C901817025
:101590009070A070B0705695479537952795822B1F
:1015A000932BA42BB52B8C839D83AE83BF838A8121
:1015B0009B8101969B838A8305C0E0E6F0E003C02F
:1015C000FB0101C0FE01CF01CDB7DEB7EEE00C9408
:1015D000D30EA0E2B0E0EFEEFAE00C94BF0E698308
:1015E0007A838B839C832D833E834F83588789E046
:1015F000E82EF12CEC0EFD1ECE010196B7010E94E3
:10160000F10D8E010F5E1F4FCE010596B8010E94AD
:10161000F10DC701B801AE01475E5F4F0E949F09FF
:101620000E94230DA096E6E00C94DB0EA0E2B0E051
:10163000ECE1FBE00C94BF0E69837A838B839C837F
:101640002D833E834F8358878E01075F1F4FCE0146
:101650000196B8010E94F10D91E1E92EF12CEC0EFA
:10166000FD1ECE010596B7010E94F10D8A8991E019
:1016700089278A8BC801B701AE01475E5F4F0E9480
:101680009F090E94230DA096E6E00C94DB0EA0E2D9
:10169000B0E0EDE4FBE00C94B30E69837A838B83B6
:1016A0009C832D833E834F835887CE010196BE01D4
:1016B000675F7F4F0E94F10DCE010596BE016F5E00
:1016C0007F4F0E94F10D9985923078F089898230A0
:1016D000C0F0943019F4823041F4CBC0843019F456
:1016E000923079F4C6C0923051F481E02A859A890B
:1016F000291709F480E08A87CE010996BCC08230A0
:1017000051F481E02A859A89291709F480E08A8BAF
:10171000CE014196B0C06D847E848F849888ED8818
:10172000FE880F89188DE0E2F0E080E090E0DC01B7
:10173000AA24BB24650120E030E0A901B301617057
:10174000707061157105D1F02E0D3F1D401F511FA6
:1017500015012601280E391E4A1E5B1E81E090E00D
:10176000A0E0B0E02E153F054007510718F080E0DB
:1017700090E0DC01820D931DA41DB51DAA0CBB1CBD
:10178000CC1CDD1C17FF09C061E0262E312C412C3A
:10179000512CA228B328C428D528319749F0EE0C43
:1017A000FF1C001F111F9694879477946794C6CFEF
:1017B0006B897C89EB85FC856E0F7F1F6E5F7F4F89
:1017C0007C8F6B8F61E0EA857A89E71709F460E026
:1017D0006A8F6B8D7C8D10C0FC01E170F0703097CA
:1017E00029F056954795379527955068B695A79552
:1017F000979587956F5F7F4FB7FDEECF0CC0880F31
:10180000991FAA1FBB1F57FD8160220F331F441F62
:10181000551F615070408030E0E09E07E0E0AE0769
:10182000E0E4BE0760F36B8F7C8F6FE7E62EF12C50
:10183000012D112DE822F9220A231B2360E4E6166C
:10184000F1040105110561F487FD0AC02115310578
:101850004105510529F0805C9F4FAF4FBF4F807805
:101860008D8F9E8FAF8FB8A383E0898FCE0149966D
:1018700002C080E690E00E94230DA096E2E10C9465
:10188000CF0EA8E1B0E0E7E4FCE00C94BF0E698362
:101890007A838B839C832D833E834F8358878E016D
:1018A000075F1F4FCE010196B8010E94F10D81E143
:1018B000E82EF12CEC0EFD1ECE010596B7010E941C
:1018C000F10D8985823040F08989823028F0C80185
:1018D000B7010E945A0E01C08FEF6896E6E00C94A3
:1018E000DB0EA8E1B0E0E7E7FCE00C94BF0E6983F3
:1018F0007A838B839C832D833E834F8358878E010D
:10190000075F1F4FCE010196B8010E94F10D81E1E2
:10191000E82EF12CEC0EFD1ECE010596B7010E94BB
:10192000F10D8985823040F08989823028F0C80124
:10193000B7010E945A0E01C08FEF6896E6E00C9442
:10194000DB0EA8E1B0E0E7EAFCE00C94BF0E69838F
:101950007A838B839C832D833E834F8358878E01AC
:10196000075F1F4FCE010196B8010E94F10D81E182
:10197000E82EF12CEC0EFD1ECE010596B7010E945B
:10198000F10D8985823040F08989823028F0C801C4
:10199000B7010E945A0E01C081E06896E6E00C94FF
:1019A000DB0EACE0B0E0E7EDFCE00C94C30E698325
:1019B0007A838B839C83CE010196BE016B5F7F4F40
:1019C0000E94F10D8D81823081F1823070F184307E
:1019D00021F48E81882369F10AC02F81388537FD73
:1019E00024C06E812F3131053CF0662311F120E0D7
:1019F00030E040E050E821C08EE190E0821B930B84
:101A000029853A854B855C8504C056954795379561
:101A100027958A95D2F7662381F0509540953095A9
:101A200021953F4F4F4F5F4F08C020E030E0A901A4
:101A300004C02FEF3FEF4FEF5FE7B901CA012C96CB
:101A4000E2E00C94DF0EEF92FF920F931F93CF937F
:101A5000DF93FC012481358146815781618180813A
:101A6000823020F44061EFEFF0E0A3C0843009F44D
:101A70009BC0823009F492C0211531054105510502
:101A800009F48FC00280F381E02D8FEFE238F80770
:101A90000CF05AC0C2E8DFEFCE1BDF0BCA31D10514
:101AA0006CF579018A010C2E04C016950795F79400
:101AB000E7940A94D2F781E090E0A0E0B0E00C2E29
:101AC00004C0880F991FAA1FBB1F0A94D2F7019761
:101AD000A109B10982239323A423B52321E030E097
:101AE00040E050E00097A105B10519F420E030E096
:101AF000A9012E293F29402B512B03C020E030E0C3
:101B0000A901DA01C9018F779070A070B07080349C
:101B10009105A105B10539F427FF09C0205C3F4FAD
:101B20004F4F5F4F04C0215C3F4F4F4F5F4FE1E08D
:101B3000F0E0203080E0380780E0480780E4580774
:101B400028F5E0E0F0E022C0E038F1056CF5E1585E
:101B5000FF4FDA01C9018F779070A070B0708034A8
:101B60009105A105B10539F427FF09C0205C3F4F5D
:101B70004F4F5F4F04C0215C3F4F4F4F5F4F57FFA8
:101B800005C05695479537952795319687E0569528
:101B90004795379527958A95D1F70BC0E0E0F0E09F
:101BA00005C0E0E0F0E005C0EFEFF0E020E030E05D
:101BB000A9018E2F879588278795942F9F77679502
:101BC00066276795E695E22EA92FA82BFE2FF62B08
:101BD000622F732F8A2F9F2FCDB7DEB7E6E00C94CC
:101BE000DB0EDC01FB012C9111963C9111971296B2
:101BF0008C911297482F4F7750E0982F991F992773
:101C0000991F13966C911397862F880F892B90E05C
:101C1000661F6627661F6183009739F52115310518
:101C20004105510511F482E029C082E89FEF9383BA
:101C3000828367E0220F331F441F551F6A95D1F737
:101C400083E0808309C0220F331F441F551F828108
:101C50009381019793838283203080E0380780E06E
:101C6000480780E4580778F320C08F3F910579F446
:101C7000211531054105510519F484E0808308954B
:101C800044FF03C081E0808310C010820EC08F57D4
:101C900090409383828383E0808387E0220F331F09
:101CA000441F551F8A95D1F750642483358346839A
:101CB00057830895FC01DB019081923008F449C0FC
:101CC0008C91823008F445C0943051F461818430A5
:101CD000B1F511962C91119730E0261B310941C0C6
:101CE000843021F0923041F48230B1F111968C9120
:101CF00011978823A1F12DC06181823001F11196E5
:101D00008C9111976817D9F42281338112968D91A5
:101D10009C9113978217930794F028173907BCF00A
:101D2000248135814681578114968D919D910D9026
:101D3000BC91A02D82179307A407B50718F466235A
:101D400041F00DC0281739074A075B0728F46623BE
:101D500031F021E030E005C020E030E002C02FEF9C
:101D60003FEFC90108952F923F924F925F926F9279
:101D70007F928F929F92AF92BF92CF92DF92EF921B
:101D8000FF920F931F93CF93DF93CDB7DEB7CA1B9C
:101D9000DB0B0FB6F894DEBF0FBECDBF09942A88C7
:101DA000398848885F846E847D848C849B84AA846F
:101DB000B984C884DF80EE80FD800C811B81AA81FC
:101DC000B981CE0FD11D0FB6F894DEBF0FBECDBFC7
:081DD000ED010895F894FFCF26
:081DD800000000000000000003
:00000001FF
