:100000000C942A000C943F000C943F000C943F0089
:100010000C943F000C943F000C943F000C943F0064
:100020000C943F000C943F000C943F000C943F0054
:100030000C943F000C943F000C943F000C943F0044
:100040000C943F000C943F000C943F000C943F0034
:100050000C943F0011241FBECFE5D8E0DEBFCDBF1A
:1000600010E0A0E6B0E0EAE8F6E102C005900D92EB
:10007000A836B107D9F70E9441000C94430B0C94A9
:1000800000000F931F93DF93CF93CDB7DEB7C35715
:10009000D0400FB6F894DEBF0FBECDBF8AEA898389
:1000A00087E88A838DEA8B8387E390E02FEFFC015A
:1000B000208388E390E0FC01108280E090E0AAE7D2
:1000C000B4E48C839D83AE83BF836C817D818E81FC
:1000D0009F8120E030E04AE753E40E94A007DC0162
:1000E000CB0188879987AA87BB8711E068857985C6
:1000F0008A859B8520E030E040E85FE30E94FA08B3
:1001000088230CF010E0112329F081E090E09D8716
:100110008C8746C011E0688579858A859B8520E0BB
:100120003FEF4FE757E40E949A0818160CF010E0D2
:10013000112361F16C817D818E819F8120E030E00F
:1001400040E251E40E94A007DC01CB01BC01CD01DB
:100150000E94CC05DC01CB019D878C8712C089E110
:1001600090E09F878E878E859F858C01C8010197BF
:10017000F1F78C011F870E878C859D8501979D87E0
:100180008C878C859D85009751F717C06885798588
:100190008A859B850E94CC05DC01CB019D878C87DD
:1001A0008C859D85998B888B888999898C01F8012C
:1001B0003197F1F78F01198B088B88E390E028E3E2
:1001C00030E0F90130812981232BFC01208380E07C
:1001D00090E0AAE7B4E48A8B9B8BAC8BBD8B6A89D9
:1001E0007B898C899D8920E030E04AE753E40E94B6
:1001F000A007DC01CB018E8B9F8BA88FB98F11E0FC
:100200006E897F89888D998D20E030E040E85FE33A
:100210000E94FA0888230CF010E0112329F081E0F5
:1002200090E09B8F8A8F46C011E06E897F89888D10
:10023000998D20E03FEF4FE757E40E949A08181687
:100240000CF010E0112361F16A897B898C899D890A
:1002500020E030E040E251E40E94A007DC01CB0145
:10026000BC01CD010E94CC05DC01CB019B8F8A8FA4
:1002700012C089E190E09D8F8C8F8C8D9D8D8C01BB
:10028000C8010197F1F78C011D8F0C8F8A8D9B8D12
:1002900001979B8F8A8F8A8D9B8D009751F717C08E
:1002A0006E897F89888D998D0E94CC05DC01CB01F8
:1002B0009B8F8A8F8A8D9B8D9F8F8E8F8E8D9F8D2A
:1002C0008C01F8013197F1F78F011F8F0E8F88E3B2
:1002D00090E02A81FC01208380E090E0AAE7B4E46A
:1002E00088A399A3AAA3BBA368A179A18AA19BA172
:1002F00020E030E04AE753E40E94A007DC01CB0194
:100300008CA39DA3AEA3BFA311E06CA17DA18EA180
:100310009FA120E030E040E85FE30E94FA088823D4
:100320000CF010E0112329F081E090E099A788A754
:1003300046C011E06CA17DA18EA19FA120E03FEFFE
:100340004FE757E40E949A0818160CF010E01123AA
:1003500061F168A179A18AA19BA120E030E040E28F
:1003600051E40E94A007DC01CB01BC01CD010E9439
:10037000CC05DC01CB0199A788A712C089E190E0E8
:100380009BA78AA78AA59BA58C01C8010197F1F7B5
:100390008C011BA70AA788A599A5019799A788A7EB
:1003A00088A599A5009751F717C06CA17DA18EA1D2
:1003B0009FA10E94CC05DC01CB0199A788A788A545
:1003C00099A59DA78CA78CA59DA58C01F8013197B7
:1003D000F1F78F011DA70CA788E390E028E330E038
:1003E000F90120812470FC01208380E090E0AAE7DD
:1003F000B4E48EA79FA7A8ABB9AB6EA57FA588A9CB
:1004000099A920E030E04AE753E40E94A007DC010C
:10041000CB018AAB9BABACABBDAB11E06AA97BA9AE
:100420008CA99DA920E030E040E85FE30E94FA0833
:1004300088230CF010E0112329F081E090E09FABBD
:100440008EAB46C011E06AA97BA98CA99DA920E0CA
:100450003FEF4FE757E40E949A0818160CF010E09F
:10046000112361F16EA57FA588A999A920E030E04C
:1004700040E251E40E94A007DC01CB01BC01CD01A8
:100480000E94CC05DC01CB019FAB8EAB12C089E191
:1004900090E099AF88AF88AD99AD8C01C801019704
:1004A000F1F78C0119AF08AF8EA99FA901979FABF7
:1004B0008EAB8EA99FA9009751F717C06AA97BA997
:1004C0008CA99DA90E94CC05DC01CB019FAB8EAB12
:1004D0008EA99FA99BAF8AAF8AAD9BAD8C01F80115
:1004E0003197F1F78F011BAF0AAF88E390E02A81C3
:1004F000FC01208380E090E0AAE7B4E48CAF9DAFDC
:10050000AEAFBFAF8E01005C1F4F6CAD7DAD8EAD49
:100510009FAD20E030E04AE753E40E94A007DC01F1
:10052000CB01F80180839183A283B383CE01805CE9
:100530009F4F11E0FC01608171818281938120E0F5
:1005400030E040E85FE30E94FA0888230CF010E0F6
:10055000112349F0CE018C5B9F4F21E030E0FC017C
:100560003183208370C0CE01805C9F4F11E0FC017D
:10057000608171818281938120E03FEF4FE757E4F2
:100580000E949A0818160CF010E0112309F449C0D3
:100590006CAD7DAD8EAD9FAD20E030E040E251E42A
:1005A0000E94A007DC01CB018E010C5B1F4FBC0138
:1005B000CD010E94CC05DC01CB01F8019183808341
:1005C00027C0CE018A5B9F4F29E130E0FC013183D7
:1005D0002083CE018A5B9F4FFC01808191818C0139
:1005E000C8010197F1F78C01CE018A5B9F4FFC0196
:1005F00011830083CE018C5B9F4F9E012C5B3F4F8C
:10060000F9012081318121503040FC013183208368
:10061000CE018C5B9F4FFC0180819181009789F610
:100620002FC08E010C5B1F4FCE01805C9F4FFC01E1
:1006300060817181828193810E94CC05DC01CB01B4
:10064000F80191838083CE01885B9F4F9E012C5BD4
:100650003F4FF90120813181FC0131832083CE019C
:10066000885B9F4FFC01808191818C01C8010197BB
:10067000F1F78C01CE01885B9F4FFC011183008351
:1006800088E390E028E330E0F901308124E023277B
:10069000FC0120839E01265B3F4F80E090E0AAE7AB
:1006A000B4E4F90180839183A283B3838E01025B5A
:1006B0001F4FCE01865B9F4FFC016081718182815B
:1006C000938120E030E04AE753E40E94A007DC0178
:1006D000CB01F80180839183A283B383CE01825B37
:1006E0009F4F11E0FC01608171818281938120E044
:1006F00030E040E85FE30E94FA0888230CF010E045
:10070000112349F0CE018E5A9F4F21E030E0FC01C9
:100710003183208374C0CE01825B9F4F11E0FC01C6
:10072000608171818281938120E03FEF4FE757E440
:100730000E949A0818160CF010E0112309F44DC01D
:10074000CE01865B9F4FFC01608171818281938124
:1007500020E030E040E251E40E94A007DC01CB0140
:100760008E010E5A1F4FBC01CD010E94CC05DC0149
:10077000CB01F8019183808327C0CE018C5A9F4F13
:1007800029E130E0FC0131832083CE018C5A9F4F58
:10079000FC01808191818C01C8010197F1F78C01E6
:1007A000CE018C5A9F4FFC0111830083CE018E5ADB
:1007B0009F4F9E012E5A3F4FF901208131812150D8
:1007C0003040FC0131832083CE018E5A9F4FFC01C3
:1007D00080819181009789F62FC08E010E5A1F4F9C
:1007E000CE01825B9F4FFC01608171818281938188
:1007F0000E94CC05DC01CB01F80191838083CE01FE
:100800008A5A9F4F9E012E5A3F4FF9012081318114
:10081000FC0131832083CE018A5A9F4FFC018081E5
:1008200091818C01C8010197F1F78C01CE018A5AA0
:100830009F4FFC011183008388E390E02B81FC0132
:1008400020839E01285A3F4F80E090E0AAE7B4E45D
:10085000F90180839183A283B3838E01045A1F4FD1
:10086000CE01885A9F4FFC01608171818281938102
:1008700020E030E04AE753E40E94A007DC01CB010E
:10088000F80180839183A283B383CE01845A9F4F62
:1008900011E0FC01608171818281938120E030E070
:1008A00040E85FE30E94FA0888230CF010E011236F
:1008B00049F0CE01805A9F4F21E030E0FC013183A6
:1008C000208374C0CE01845A9F4F11E0FC016081E7
:1008D00071818281938120E03FEF4FE757E40E94CE
:1008E0009A0818160CF010E0112309F44DC0CE013F
:1008F000885A9F4FFC01608171818281938120E041
:1009000030E040E251E40E94A007DC01CB018E01FF
:10091000005A1F4FBC01CD010E94CC05DC01CB0168
:10092000F8019183808327C0CE018E599F4F29E122
:1009300030E0FC0131832083CE018E599F4FFC01B2
:10094000808191818C01C8010197F1F78C01CE0162
:100950008E599F4FFC0111830083CE01805A9F4F17
:100960009E01205A3F4FF9012081318121503040B2
:10097000FC0131832083CE01805A9F4FFC0180818E
:100980009181009789F62FC08E01005A1F4FCE012A
:10099000845A9F4FFC0160817181828193810E9402
:1009A000CC05DC01CB01F80191838083CE018C5909
:1009B0009F4F9E01205A3F4FF90120813181FC0158
:1009C00031832083CE018C599F4FFC01808191811E
:1009D0008C01C8010197F1F78C01CE018C599F4F12
:1009E000FC011183008388E390E02B81220FFC013E
:1009F00020839E012A593F4F80E090E0AAE7B4E4AB
:100A0000F90180839183A283B3838E0106591F4F1E
:100A1000CE018A599F4FFC0160817181828193814F
:100A200020E030E04AE753E40E94A007DC01CB015C
:100A3000F80180839183A283B383CE0186599F4FAF
:100A400011E0FC01608171818281938120E030E0BE
:100A500040E85FE30E94FA0888230CF010E01123BD
:100A600049F0CE0182599F4F21E030E0FC013183F3
:100A7000208374C0CE0186599F4F11E0FC01608134
:100A800071818281938120E03FEF4FE757E40E941C
:100A90009A0818160CF010E0112309F44DC0CE018D
:100AA0008A599F4FFC01608171818281938120E08E
:100AB00030E040E251E40E94A007DC01CB018E014E
:100AC00002591F4FBC01CD010E94CC05DC01CB01B6
:100AD000F8019183808327C0CE0180599F4F29E17F
:100AE00030E0FC0131832083CE0180599F4FFC010F
:100AF000808191818C01C8010197F1F78C01CE01B1
:100B000080599F4FFC0111830083CE0182599F4F72
:100B10009E0122593F4FF9012081318121503040FF
:100B2000FC0131832083CE0182599F4FFC018081DB
:100B30009181009789F6BDCA8E0102591F4FCE01DF
:100B400086599F4FFC0160817181828193810E944F
:100B5000CC05DC01CB01F80191838083CE018E5856
:100B60009F4F9E0122593F4FF90120813181FC01A5
:100B700031832083CE018E589F4FFC01808191816B
:100B80008C01C8010197F1F78C01CE018E589F4F5F
:100B9000FC01118300838DCAEF92FF920F931F9384
:100BA0007B018C0120E030E040E05FE40E94CA0855
:100BB00087FD11C0C801B70120E030E040E05FE4EC
:100BC0000E946F070E942A099B01AC01205030400F
:100BD0004040504806C0C801B7010E942A099B0145
:100BE000AC01B901CA011F910F91FF90EF900895D8
:100BF000A0E0B0E0EEEFF5E00C94100BFC01EA0190
:100C00008081823008F438C1DB019C91923008F475
:100C100030C1843059F4943009F02EC1918111967D
:100C20008C911197981709F021C126C1943009F4CD
:100C300020C19230B1F4823009F01EC1CA01AF0167
:100C400028E0DA010D90AD01DC010D92CD012150BB
:100C5000C1F7DB0111968C911197918189238983CA
:100C60000AC1823009F405C1C280D380DB0112962B
:100C70006D907C901397248135814681578114961D
:100C8000ED90FD900D911C911797C601861997095B
:100C90005C0197FF04C0AA24BB24A81AB90AB0E2D9
:100CA000AB16B1040CF061C0181619066CF53701CB
:100CB00048010A2C04C096948794779467940A9408
:100CC000D2F781E090E0A0E0B0E00A2C04C0880FE9
:100CD000991FAA1FBB1F0A94D2F70197A109B10956
:100CE0008E219F21A023B123EE24FF248701E394CA
:100CF0000097A105B10519F4EE24FF248701E62829
:100D0000F728082919293CC00097D1F1CA0CDB1C2F
:100D100039014A010A2C04C0969487947794679409
:100D20000A94D2F781E090E0A0E0B0E00A2C04C081
:100D3000880F991FAA1FBB1F0A94D2F70197A10918
:100D4000B10982239323A423B52321E030E040E0BE
:100D500050E00097A105B10519F420E030E0A901A9
:100D600026293729482959290BC06C147D0424F4FD
:100D7000EE24FF24870104C0630120E030E0A901D4
:100D80008181FB019181891709F445C0882349F0CD
:100D9000D801C701821B930BA40BB50B9C01AD01BD
:100DA00004C02E193F09400B510B57FD04C0198296
:100DB000DB82CA820BC081E08983DB82CA825095C4
:100DC0004095309521953F4F4F4F5F4F2C833D838A
:100DD0004E835F830DC0880F991FAA1FBB1F8C8392
:100DE0009D83AE83BF838A819B8101979B838A8386
:100DF0008C819D81AE81BF819C01AD01215030402D
:100E0000404050402F3FEFEF3E07EFEF4E07EFE33C
:100E10005E0708F30BC08983DB82CA822E0D3F1D5B
:100E2000401F511F2C833D834E835F8383E0888363
:100E30002C813D814E815F8157FF1DC0DA01C901C0
:100E400081709070A070B070569547953795279532
:100E5000822B932BA42BB52B8C839D83AE83BF83D6
:100E60008A819B8101969B838A8305C0E0E6F0E03E
:100E700003C0FB0101C0FE01CF01CDB7DEB7EEE03C
:100E80000C942C0BA0E2B0E0E8E4F7E00C94180B13
:100E900069837A838B839C832D833E834F8358871A
:100EA00089E0E82EF12CEC0EFD1ECE010196B70173
:100EB0000E944A0A8E010F5E1F4FCE010596B801AF
:100EC0000E944A0AC701B801AE01475E5F4F0E9407
:100ED000F8050E947C09A096E6E00C94340BA0E291
:100EE000B0E0E5E7F7E00C94180B69837A838B8315
:100EF0009C832D833E834F8358878E01075F1F4F4E
:100F0000CE010196B8010E944A0A91E1E92EF12C26
:100F1000EC0EFD1ECE010596B7010E944A0A8A8991
:100F200091E089278A8BC801B701AE01475E5F4F08
:100F30000E94F8050E947C09A096E6E00C94340B10
:100F4000A0E2B0E0E6EAF7E00C940C0B69837A8348
:100F50008B839C832D833E834F835887CE010196DC
:100F6000BE01675F7F4F0E944A0ACE010596BE010F
:100F70006F5E7F4F0E944A0A9985923078F0898986
:100F80008230C0F0943019F4823041F4CBC0843008
:100F900019F4923079F4C6C0923051F481E02A8578
:100FA0009A89291709F480E08A87CE010996BCC086
:100FB000823051F481E02A859A89291709F480E06A
:100FC0008A8BCE014196B0C06D847E848F849888D0
:100FD000ED88FE880F89188DE0E2F0E080E090E077
:100FE000DC01AA24BB24650120E030E0A901B301A3
:100FF0006170707061157105D1F02E0D3F1D401F9D
:10100000511F15012601280E391E4A1E5B1E81E064
:1010100090E0A0E0B0E02E153F054007510718F022
:1010200080E090E0DC01820D931DA41DB51DAA0C8B
:10103000BB1CCC1CDD1C17FF09C061E0262E312C27
:10104000412C512CA228B328C428D528319749F027
:10105000EE0CFF1C001F111F9694879477946794E1
:10106000C6CF6B897C89EB85FC856E0F7F1F6E5F19
:101070007F4F7C8F6B8F61E0EA857A89E71709F4EF
:1010800060E06A8F6B8D7C8D10C0FC01E170F070A8
:10109000309729F056954795379527955068B6951E
:1010A000A795979587956F5F7F4FB7FDEECF0CC0E3
:1010B000880F991FAA1FBB1F57FD8160220F331F86
:1010C000441F551F615070408030E0E09E07E0E013
:1010D000AE07E0E4BE0760F36B8F7C8F6FE7E62E10
:1010E000F12C012D112DE822F9220A231B2360E4A3
:1010F000E616F1040105110561F487FD0AC021150A
:1011000031054105510529F0805C9F4FAF4FBF4F1E
:1011100080788D8F9E8FAF8FB8A383E0898FCE01AB
:10112000499602C080E690E00E947C09A096E2E128
:101130000C94280BA8E1B0E0E0EAF8E00C94180B5E
:1011400069837A838B839C832D833E834F83588767
:101150008E01075F1F4FCE010196B8010E944A0A17
:1011600081E1E82EF12CEC0EFD1ECE010596B701B3
:101170000E944A0A8985823040F08989823028F0AD
:10118000C801B7010E94B30A01C08FEF6896E6E07C
:101190000C94340BA8E1B0E0E0EDF8E00C94180BEF
:1011A00069837A838B839C832D833E834F83588707
:1011B0008E01075F1F4FCE010196B8010E944A0AB7
:1011C00081E1E82EF12CEC0EFD1ECE010596B70153
:1011D0000E944A0A8985823040F08989823028F04D
:1011E000C801B7010E94B30A01C08FEF6896E6E01C
:1011F0000C94340BA8E1B0E0E0E0F9E00C94180B9B
:1012000069837A838B839C832D833E834F835887A6
:101210008E01075F1F4FCE010196B8010E944A0A56
:1012200081E1E82EF12CEC0EFD1ECE010596B701F2
:101230000E944A0A8985823040F08989823028F0EC
:10124000C801B7010E94B30A01C081E06896E6E0D8
:101250000C94340BACE0B0E0E0E3F9E00C941C0B30
:1012600069837A838B839C83CE010196BE016B5F79
:101270007F4F0E944A0A8D81823081F1823070F165
:10128000843021F48E81882369F10AC02F8138854A
:1012900037FD24C06E812F3131053CF0662311F1FA
:1012A00020E030E040E050E821C08EE190E0821B79
:1012B000930B29853A854B855C8504C056954795E7
:1012C000379527958A95D2F7662381F050954095FA
:1012D000309521953F4F4F4F5F4F08C020E030E0E1
:1012E000A90104C02FEF3FEF4FEF5FE7B901CA013B
:1012F0002C96E2E00C94380BEF92FF920F931F9321
:10130000CF93DF93FC012481358146815781618130
:101310008081823020F44061EFEFF0E0A3C08430A0
:1013200009F49BC0823009F492C0211531054105B2
:10133000510509F48FC00280F381E02D8FEFE23870
:10134000F8070CF05AC0C2E8DFEFCE1BDF0BCA3142
:10135000D1056CF579018A010C2E04C0169507950C
:10136000F794E7940A94D2F781E090E0A0E0B0E02F
:101370000C2E04C0880F991FAA1FBB1F0A94D2F716
:101380000197A109B10982239323A423B52321E066
:1013900030E040E050E00097A105B10519F420E0ED
:1013A00030E0A9012E293F29402B512B03C020E01A
:1013B00030E0A901DA01C9018F779070A070B07098
:1013C00080349105A105B10539F427FF09C0205CDF
:1013D0003F4F4F4F5F4F04C0215C3F4F4F4F5F4F18
:1013E000E1E0F0E0203080E0380780E0480780E46A
:1013F000580728F5E0E0F0E022C0E038F1056CF590
:10140000E158FF4FDA01C9018F779070A070B0707A
:1014100080349105A105B10539F427FF09C0205C8E
:101420003F4F4F4F5F4F04C0215C3F4F4F4F5F4FC7
:1014300057FF05C05695479537952795319687E014
:1014400056954795379527958A95D1F70BC0E0E0DB
:10145000F0E005C0E0E0F0E005C0EFEFF0E020E0F4
:1014600030E0A9018E2F879588278795942F9F7745
:10147000679566276795E695E22EA92FA82BFE2F84
:10148000F62B622F732F8A2F9F2FCDB7DEB7E6E0A2
:101490000C94340BDC01FB012C9111963C911197BB
:1014A00012968C911297482F4F7750E0982F991FE2
:1014B0009927991F13966C911397862F880F892B64
:1014C00090E0661F6627661F6183009739F5211536
:1014D00031054105510511F482E029C082E89FEFF2
:1014E0009383828367E0220F331F441F551F6A9541
:1014F000D1F783E0808309C0220F331F441F551F9B
:1015000082819381019793838283203080E0380722
:1015100080E0480780E4580778F320C08F3F9105AA
:1015200079F4211531054105510519F484E08083D2
:10153000089544FF03C081E0808310C010820EC074
:101540008F5790409383828383E0808387E0220FCC
:10155000331F441F551F8A95D1F750642483358368
:10156000468357830895FC01DB019081923008F493
:1015700049C08C91823008F445C0943051F46181A7
:101580008430B1F511962C91119730E0261B31096A
:1015900041C0843021F0923041F48230B1F1119693
:1015A0008C9111978823A1F12DC06181823001F1C6
:1015B00011968C9111976817D9F422813381129674
:1015C0008D919C9113978217930794F028173907F0
:1015D000BCF0248135814681578114968D919D916F
:1015E0000D90BC91A02D82179307A407B50718F49E
:1015F000662341F00DC0281739074A075B0728F416
:10160000662331F021E030E005C020E030E002C088
:101610002FEF3FEFC90108952F923F924F925F92B3
:101620006F927F928F929F92AF92BF92CF92DF92F2
:10163000EF92FF920F931F93CF93DF93CDB7DEB757
:10164000CA1BDB0B0FB6F894DEBF0FBECDBF0994EB
:101650002A88398848885F846E847D848C849B8442
:10166000AA84B984C884DF80EE80FD800C811B8150
:10167000AA81B981CE0FD11D0FB6F894DEBF0FBE7F
:0A168000CDBFED010895F894FFCFEF
:08168A00000000000000000058
:00000001FF
