:100000000C942A000C9434000C9434000C943400AA
:100010000C9434000C9434000C9434000C94340090
:100020000C9434000C9434000C9434000C94340080
:100030000C9434000C9434000C9434000C94340070
:100040000C9434000C9434000C9434000C94340060
:100050000C94340011241FBECFE5D8E0DEBFCDBF25
:100060000E9436000C944D000C940000DF93CF9357
:10007000CDB7DEB787E390E02FEFFC01208384E368
:1000800090E0FC01108288E390E023E330E0F90186
:0E00900020812095FC012083F6CFF894FFCF4D
:00000001FF
