:100000000C942A000C9434000C9434000C943400AA
:100010000C9434000C9434000C9434000C94340090
:100020000C9434000C9434000C9434000C94340080
:100030000C9434000C9434000C9434000C94340070
:100040000C9434000C9434000C9434000C94340060
:100050000C94340011241FBECFE5D8E0DEBFCDBF25
:100060000E9436000C9445000C940000DF93CF935F
:10007000CDB7DEB787E390E02FEFFC01208388E364
:0E00800090E021E0FC012083FACFF894FFCF3E
:00000001FF
