:100000000C942A000C943F000C943F000C943F0089
:100010000C943F000C943F000C943F000C943F0064
:100020000C943F000C943F000C943F000C943F0054
:100030000C943F000C943F000C943F000C943F0044
:100040000C943F000C943F000C943F000C943F0034
:100050000C943F0011241FBECFE5D8E0DEBFCDBF1A
:1000600010E0A0E6B0E0E2EAF5E302C005900D92F0
:10007000A03BB107D9F70E946B140C94CF1A0C94D3
:1000800000000F931F93DF93CF93CDB7DEB7CD570B
:10009000D0400FB6F894DEBF0FBECDBF9E012458EE
:1000A0003F4FF9018083CE0183589F4FFC0160834D
:1000B000CE0184589F4FFC01808182958F70898387
:1000C000CE0184589F4FFC0180818F708A83CE01BE
:1000D00083589F4FFC018081882351F482E390E094
:1000E00022E330E0F9012081277FFC01208309C051
:1000F00082E390E022E330E0F90120812860FC01F6
:10010000208380E090E0A0E0BFE38C839D83AE83FA
:10011000BF836C817D818E819F812BEA3AEA4AEA16
:100120005EE30E945716DC01CB0188879987AA8776
:10013000BB8711E0688579858A859B8520E030E062
:1001400040E85FE30E945F1888230CF010E0112361
:1001500019F081E08C87A3C011E0688579858A85D4
:100160009B8520E030E04FE753E40E94FF1718160C
:100170000CF010E0112309F489C06C817D818E811F
:100180009F8120E030E04AE754E40E945117DC01EF
:10019000CB018D879E87AF87B88B6D857E858F85D8
:1001A000988920E030E04AE753E40E945716DC01CA
:1001B000CB01898B9A8BAB8BBC8B11E069897A89D7
:1001C0008B899C8920E030E040E85FE30E945F1863
:1001D00088230CF010E0112329F081E090E09E8B41
:1001E0008D8B46C011E069897A898B899C8920E0D2
:1001F0003FEF4FE757E40E94FF1718160CF010E08E
:10020000112361F16D857E858F85988920E030E02E
:1002100040E251E40E945716DC01CB01BC01CD0144
:100220000E948314DC01CB019E8B8D8B12C089E16F
:1002300090E0988F8F8B8F89988D8C01C8010197E2
:10024000F1F78C01188F0F8B8D899E8901979E8BFA
:100250008D8B8D899E89009751F728C069897A898D
:100260008B899C890E948314DC01CB019E8B8D8B32
:100270008D899E899A8F898F898D9A8D8C01F8013D
:100280003197F1F78F011A8F098F10C06885798532
:100290008A859B850E948314DC01CB018C878C8529
:1002A0008B8F8B8D182F1A95F1F71B8F88E390E0B9
:1002B00028E330E0F90120812061FC01208388E3FC
:1002C00090E0FC018081982F907F8981892B8B831E
:1002D00088E390E02B81FC01208380E090E0A0E89F
:1002E000BFE38C8F9D8FAE8FBF8F6C8D7D8D8E8D7C
:1002F0009F8D2BEA3AEA4AEA5EE30E945716DC0138
:10030000CB0188A399A3AAA3BBA311E068A179A1FB
:100310008AA19BA120E030E040E85FE30E945F18E3
:1003200088230CF010E0112319F081E08CA3A3C006
:1003300011E068A179A18AA19BA120E030E04FE7FC
:1003400053E40E94FF1718160CF010E0112309F473
:1003500089C06C8D7D8D8E8D9F8D20E030E04AE7C9
:1003600054E40E945117DC01CB018DA39EA3AFA3DF
:10037000B8A76DA17EA18FA198A520E030E04AE743
:1003800053E40E945716DC01CB0189A79AA7ABA7BB
:10039000BCA711E069A57AA58BA59CA520E030E05B
:1003A00040E85FE30E945F1888230CF010E01123FF
:1003B00029F081E090E09EA78DA746C011E069A5D5
:1003C0007AA58BA59CA520E03FEF4FE757E40E945C
:1003D000FF1718160CF010E0112361F16DA17EA13A
:1003E0008FA198A520E030E040E251E40E9457162A
:1003F000DC01CB01BC01CD010E948314DC01CB01E7
:100400009EA78DA712C089E190E098AB8FA78FA51A
:1004100098A98C01C8010197F1F78C0118AB0FA7BF
:100420008DA59EA501979EA78DA78DA59EA500973A
:1004300051F728C069A57AA58BA59CA50E948314B5
:10044000DC01CB019EA78DA78DA59EA59AAB89AB9C
:1004500089A99AA98C01F8013197F1F78F011AAB9C
:1004600009AB10C068A179A18AA19BA10E94831445
:10047000DC01CB018CA38CA18BAB8BA9182F1A9517
:10048000F1F71BAB88E390E028E330E0F90120812D
:100490002F7EFC01208380E090E0A0E8BFE38CABDE
:1004A0009DABAEABBFAB6CA97DA98EA99FA92BEA72
:1004B0003AEA4AEA5EE30E945716DC01CB0188AFB4
:1004C00099AFAAAFBBAF11E068AD79AD8AAD9BAD76
:1004D00020E030E040E85FE30E945F1888230CF0E2
:1004E00010E0112319F081E08CAFF3C011E068AD8A
:1004F00079AD8AAD9BAD20E030E04FE753E40E9438
:10050000FF1718160CF010E0112309F4D9C06CA9DC
:100510007DA98EA99FA920E030E04AE754E40E941B
:100520005117DC01CB019E01235C3F4FF901808311
:100530009183A283B3838E010F5B1F4FCE01CD96B3
:10054000FC01608171818281938120E030E04AE783
:1005500053E40E945716DC01CB01F801808391839C
:10056000A283B383CE018F5B9F4F11E0FC016081BA
:1005700071818281938120E030E040E85FE30E9456
:100580005F1888230CF010E0112349F0CE018B5B3B
:100590009F4F21E030E0FC013183208373C0CE0106
:1005A0008F5B9F4F11E0FC0160817181828193819B
:1005B00020E03FEF4FE757E40E94FF1718160CF0BA
:1005C00010E0112309F44CC0CE01CD96FC016081EE
:1005D00071818281938120E030E040E251E40E9409
:1005E0005716DC01CB018E010B5B1F4FBC01CD0107
:1005F0000E948314DC01CB01F8019183808327C022
:10060000CE01895B9F4F29E130E0FC0131832083DB
:10061000CE01895B9F4FFC01808191818C01C801D3
:100620000197F1F78C01CE01895B9F4FFC0111838B
:100630000083CE018B5B9F4F9E012B5B3F4FF901E7
:100640002081318121503040FC0131832083CE0153
:100650008B5B9F4FFC0180819181009789F64CC094
:100660008E010B5B1F4FCE018F5B9F4FFC016081A2
:100670007181828193810E948314DC01CB01F80196
:1006800091838083CE01875B9F4F9E012B5B3F4F01
:10069000F90120813181FC0131832083CE01875B08
:1006A0009F4FFC01808191818C01C8010197F1F776
:1006B0008C01CE01875B9F4FFC01118300831CC01E
:1006C00068AD79AD8AAD9BAD0E948314DC01CB018E
:1006D0008CAFCE01855B9F4F2CADFC012083CE01FA
:1006E000855B9F4FFC018081182F1A95F1F7CE0191
:1006F000855B9F4FFC01108388E390E028E330E0A6
:10070000F90120812061FC01208388E390E0FC0155
:100710008081982F907F8A81892B8B8388E390E05A
:100720002B81FC0120839E01245B3F4F80E090E001
:10073000A0E8BFE3F90180839183A283B3838E0194
:10074000005B1F4FCE01845B9F4FFC016081718174
:10075000828193812BEA3AEA4AEA5EE30E945716C5
:10076000DC01CB01F80180839183A283B383CE01A6
:10077000805B9F4F11E0FC016081718182819381D8
:1007800020E030E040E85FE30E945F1888230CF02F
:1007900010E0112339F0CE018C5A9F4F21E0FC016B
:1007A000208305C1CE01805B9F4F11E0FC01608179
:1007B00071818281938120E030E04FE753E40E9411
:1007C000FF1718160CF010E0112309F4DFC0CE015A
:1007D000845B9F4FFC01608171818281938120E065
:1007E00030E04AE754E40E945117DC01CB019E013E
:1007F0002B5A3F4FF90180839183A283B3838E01EB
:10080000075A1F4FCE018B5A9F4FFC0160817181A7
:100810008281938120E030E04AE753E40E9457163A
:10082000DC01CB01F80180839183A283B383CE01E5
:10083000875A9F4F11E0FC01608171818281938111
:1008400020E030E040E85FE30E945F1888230CF06E
:1008500010E0112349F0CE01835A9F4F21E030E090
:10086000FC013183208374C0CE01875A9F4F11E071
:10087000FC01608171818281938120E03FEF4FE72D
:1008800057E40E94FF1718160CF010E0112309F42A
:100890004DC0CE018B5A9F4FFC01608171818281D6
:1008A000938120E030E040E251E40E945716DC01E1
:1008B000CB018E01035A1F4FBC01CD010E9483144E
:1008C000DC01CB01F8019183808327C0CE01815ADE
:1008D0009F4F29E130E0FC0131832083CE01815A12
:1008E0009F4FFC01808191818C01C8010197F1F734
:1008F0008C01CE01815A9F4FFC0111830083CE01F0
:10090000835A9F4F9E01235A3F4FF9012081318125
:1009100021503040FC0131832083CE01835A9F4F08
:10092000FC0180819181009789F658C08E01035A9D
:100930001F4FCE01875A9F4FFC01608171818281D8
:1009400093810E948314DC01CB01F80191838083A1
:10095000CE018F599F4F9E01235A3F4FF9012081AD
:100960003181FC0131832083CE018F599F4FFC01DF
:10097000808191818C01C8010197F1F78C01CE0132
:100980008F599F4FFC011183008328C08E010C5AA0
:100990001F4FCE01805B9F4FFC016081718182817E
:1009A00093810E948314DC01CB01F8018083CE0186
:1009B0008D599F4F9E012C5A3F4FF9012081FC0118
:1009C0002083CE018D599F4FFC018081182F1A95ED
:1009D000F1F7CE018D599F4FFC01108388E390E021
:1009E00028E330E0F90120812F7EFC0120839E0165
:1009F0002C593F4F80E090E0A0E8BFE3F9018083ED
:100A00009183A283B3838E0108591F4FCE018C5965
:100A10009F4FFC0160817181828193812BEA3AEAC8
:100A20004AEA5EE30E945716DC01CB01F80180839D
:100A30009183A283B383CE0188599F4F11E0FC01BB
:100A4000608171818281938120E030E040E85FE342
:100A50000E945F1888230CF010E0112339F0CE01BA
:100A600084599F4F21E0FC01208305C1CE018859A4
:100A70009F4F11E0FC01608171818281938120E0B0
:100A800030E04FE753E40E94FF1718160CF010E017
:100A9000112309F4DFC0CE018C599F4FFC01608106
:100AA00071818281938120E030E04AE754E40E9422
:100AB0005117DC01CB019E0123593F4FF90180837F
:100AC0009183A283B3838E010F581F4FCE018359A8
:100AD0009F4FFC01608171818281938120E030E031
:100AE0004AE753E40E945716DC01CB01F8018083EA
:100AF0009183A283B383CE018F589F4F11E0FC01F5
:100B0000608171818281938120E030E040E85FE381
:100B10000E945F1888230CF010E0112349F0CE01E9
:100B20008B589F4F21E030E0FC013183208374C05B
:100B3000CE018F589F4F11E0FC016081718182814D
:100B4000938120E03FEF4FE757E40E94FF1718160C
:100B50000CF010E0112309F44DC0CE0183599F4FD2
:100B6000FC01608171818281938120E030E040E26C
:100B700051E40E945716DC01CB018E010B581F4F28
:100B8000BC01CD010E948314DC01CB01F8019183EB
:100B9000808327C0CE0189589F4F29E130E0FC01B6
:100BA00031832083CE0189589F4FFC018081918140
:100BB0008C01C8010197F1F78C01CE0189589F4F34
:100BC000FC0111830083CE018B589F4F9E012B584F
:100BD0003F4FF9012081318121503040FC013183A8
:100BE0002083CE018B589F4FFC018081918100971B
:100BF00089F658C08E010B581F4FCE018F589F4F5A
:100C0000FC0160817181828193810E948314DC01E7
:100C1000CB01F80191838083CE0187589F4F9E01BD
:100C20002B583F4FF90120813181FC013183208312
:100C3000CE0187589F4FFC01808191818C01C801B2
:100C40000197F1F78C01CE0187589F4FFC0111836A
:100C5000008328C08E0104591F4FCE0188599F4F31
:100C6000FC0160817181828193810E948314DC0187
:100C7000CB01F8018083CE0185589F4F9E012459F6
:100C80003F4FF9012081FC012083CE0185589F4F01
:100C9000FC018081182F1A95F1F7CE0185589F4FDE
:100CA000FC0110830E946006C358DF4F0FB6F89412
:100CB000DEBF0FBECDBFCF91DF911F910F91089581
:100CC0000F931F93DF93CF93CDB7DEB7CB5AD040AE
:100CD0000FB6F894DEBF0FBECDBF198287E390E058
:100CE00027E330E0F9012081207FFC01208382E3AB
:100CF00090E022E330E0F90120812064FC012083B0
:100D000082E390E022E330E0F9012081277FFC01BB
:100D1000208380E090E0A0E0BFE38C839D83AE83DE
:100D2000BF836C817D818E819F812BEA3AEA4AEAFA
:100D30005EE30E945716DC01CB0188879987AA875A
:100D4000BB8711E0688579858A859B8520E030E046
:100D500040E85FE30E945F1888230CF010E0112345
:100D600019F081E08C87A3C011E0688579858A85B8
:100D70009B8520E030E04FE753E40E94FF171816F0
:100D80000CF010E0112309F489C06C817D818E8103
:100D90009F8120E030E04AE754E40E945117DC01D3
:100DA000CB018D879E87AF87B88B6D857E858F85BC
:100DB000988920E030E04AE753E40E945716DC01AE
:100DC000CB01898B9A8BAB8BBC8B11E069897A89BB
:100DD0008B899C8920E030E040E85FE30E945F1847
:100DE00088230CF010E0112329F081E090E09E8B25
:100DF0008D8B46C011E069897A898B899C8920E0B6
:100E00003FEF4FE757E40E94FF1718160CF010E071
:100E1000112361F16D857E858F85988920E030E012
:100E200040E251E40E945716DC01CB01BC01CD0128
:100E30000E948314DC01CB019E8B8D8B12C089E153
:100E400090E0988F8F8B8F89988D8C01C8010197C6
:100E5000F1F78C01188F0F8B8D899E8901979E8BDE
:100E60008D8B8D899E89009751F728C069897A8971
:100E70008B899C890E948314DC01CB019E8B8D8B16
:100E80008D899E899A8F898F898D9A8D8C01F80121
:100E90003197F1F78F011A8F098F10C06885798516
:100EA0008A859B850E948314DC01CB018C878C850D
:100EB0008B8F8B8D182F1A95F1F71B8F88E390E09D
:100EC00028E330E0F90120812061FC01208380E0EB
:100ED00090E0A0E0BFE38C8F9D8FAE8FBF8F6C8DB5
:100EE0007D8D8E8D9F8D2BEA3AEA4AEA5EE30E9461
:100EF0005716DC01CB0188A399A3AAA3BBA311E0D9
:100F000068A179A18AA19BA120E030E040E85FE3DD
:100F10000E945F1888230CF010E0112319F081E083
:100F20008CA3A3C011E068A179A18AA19BA120E0B4
:100F300030E04FE753E40E94FF1718160CF010E062
:100F4000112309F489C06C8D7D8D8E8D9F8D20E0DD
:100F500030E04AE754E40E945117DC01CB018DA335
:100F60009EA3AFA3B8A76DA17EA18FA198A520E0F5
:100F700030E04AE753E40E945716DC01CB0189A711
:100F80009AA7ABA7BCA711E069A57AA58BA59CA5DC
:100F900020E030E040E85FE30E945F1888230CF017
:100FA00010E0112329F081E090E09EA78DA746C0B4
:100FB00011E069A57AA58BA59CA520E03FEF4FE73E
:100FC00057E40E94FF1718160CF010E0112361F18E
:100FD0006DA17EA18FA198A520E030E040E251E410
:100FE0000E945716DC01CB01BC01CD010E94831485
:100FF000DC01CB019EA78DA712C089E190E098ABE0
:101000008FA78FA598A98C01C8010197F1F78C01D2
:1010100018AB0FA78DA59EA501979EA78DA78DA59F
:101020009EA5009751F728C069A57AA58BA59CA518
:101030000E948314DC01CB019EA78DA78DA59EA5E0
:101040009AAB89AB89A99AA98C01F8013197F1F77C
:101050008F011AAB09AB10C068A179A18AA19BA12D
:101060000E948314DC01CB018CA38CA18BAB8BA9D8
:10107000182F1A95F1F71BAB86E390E0FC018081F5
:10108000898389818295807F898380E090E0A0E0D8
:10109000BFE38CAB9DABAEABBFAB6CA97DA98EA9FA
:1010A0009FA92BEA3AEA4AEA5EE30E945716DC015E
:1010B000CB0188AF99AFAAAFBBAF11E068AD79ADF6
:1010C0008AAD9BAD20E030E040E85FE30E945F180E
:1010D00088230CF010E0112319F081E08CAFF3C0ED
:1010E00011E068AD79AD8AAD9BAD20E030E04FE70F
:1010F00053E40E94FF1718160CF010E0112309F4B6
:10110000D9C06CA97DA98EA99FA920E030E04AE74B
:1011100054E40E945117DC01CB019E01235C3F4F38
:10112000F90180839183A283B3838E010F5B1F4FEC
:10113000CE01CD96FC01608171818281938120E096
:1011400030E04AE753E40E945716DC01CB01F80176
:1011500080839183A283B383CE018F5B9F4F11E085
:10116000FC01608171818281938120E030E040E860
:101170005FE30E945F1888230CF010E0112349F010
:10118000CE018B5B9F4F21E030E0FC013183208357
:1011900073C0CE018F5B9F4F11E0FC0160817181B4
:1011A0008281938120E03FEF4FE757E40E94FF17D1
:1011B00018160CF010E0112309F44CC0CE01CD96A6
:1011C000FC01608171818281938120E030E040E206
:1011D00051E40E945716DC01CB018E010B5B1F4FBF
:1011E000BC01CD010E948314DC01CB01F801918385
:1011F000808327C0CE01895B9F4F29E130E0FC014D
:1012000031832083CE01895B9F4FFC0180819181D6
:101210008C01C8010197F1F78C01CE01895B9F4FCA
:10122000FC0111830083CE018B5B9F4F9E012B5BE2
:101230003F4FF9012081318121503040FC01318341
:101240002083CE018B5B9F4FFC01808191810097B1
:1012500089F64CC08E010B5B1F4FCE018F5B9F4FF9
:10126000FC0160817181828193810E948314DC0181
:10127000CB01F80191838083CE01875B9F4F9E0154
:101280002B5B3F4FF90120813181FC0131832083A9
:10129000CE01875B9F4FFC01808191818C01C80149
:1012A0000197F1F78C01CE01875B9F4FFC01118301
:1012B00000831CC068AD79AD8AAD9BAD0E948314DC
:1012C000DC01CB018CAFCE01855B9F4F2CADFC01C7
:1012D0002083CE01855B9F4FFC018081182F1A95DA
:1012E000F1F7CE01855B9F4FFC01108388E390E00E
:1012F00028E330E0F90120812F7EFC0120839E014C
:10130000245B3F4F80E090E0A0E8BFE3F9018083D9
:101310009183A283B3838E01005B1F4FCE01845B58
:101320009F4FFC0160817181828193812BEA3AEAAF
:101330004AEA5EE30E945716DC01CB01F801808384
:101340009183A283B383CE01805B9F4F11E0FC01A8
:10135000608171818281938120E030E040E85FE329
:101360000E945F1888230CF010E0112339F0CE01A1
:101370008C5A9F4F21E0FC01208305C1CE01805B88
:101380009F4F11E0FC01608171818281938120E097
:1013900030E04FE753E40E94FF1718160CF010E0FE
:1013A000112309F4DFC0CE01845B9F4FFC016081F3
:1013B00071818281938120E030E04AE754E40E9409
:1013C0005117DC01CB019E012B5A3F4FF90180835D
:1013D0009183A283B3838E01075A1F4FCE018B5A8C
:1013E0009F4FFC01608171818281938120E030E018
:1013F0004AE753E40E945716DC01CB01F8018083D1
:101400009183A283B383CE01875A9F4F11E0FC01E1
:10141000608171818281938120E030E040E85FE368
:101420000E945F1888230CF010E0112349F0CE01D0
:10143000835A9F4F21E030E0FC013183208374C048
:10144000CE01875A9F4F11E0FC016081718182813A
:10145000938120E03FEF4FE757E40E94FF171816F3
:101460000CF010E0112309F44DC0CE018B5A9F4FB0
:10147000FC01608171818281938120E030E040E253
:1014800051E40E945716DC01CB018E01035A1F4F15
:10149000BC01CD010E948314DC01CB01F8019183D2
:1014A000808327C0CE01815A9F4F29E130E0FC01A3
:1014B00031832083CE01815A9F4FFC01808191812D
:1014C0008C01C8010197F1F78C01CE01815A9F4F21
:1014D000FC0111830083CE01835A9F4F9E01235A42
:1014E0003F4FF9012081318121503040FC0131838F
:1014F0002083CE01835A9F4FFC0180819181009708
:1015000089F658C08E01035A1F4FCE01875A9F4F4C
:10151000FC0160817181828193810E948314DC01CE
:10152000CB01F80191838083CE018F599F4F9E019B
:10153000235A3F4FF90120813181FC0131832083FF
:10154000CE018F599F4FFC01808191818C01C80190
:101550000197F1F78C01CE018F599F4FFC01118348
:10156000008328C08E010C5A1F4FCE01805B9F4F15
:10157000FC0160817181828193810E948314DC016E
:10158000CB01F8018083CE018D599F4F9E012C5ACB
:101590003F4FF9012081FC012083CE018D599F4FDF
:1015A000FC018081182F1A95F1F7CE018D599F4FBC
:1015B000FC01108388E390E028E330E0F90120810A
:1015C0002061FC0120839E012C593F4F80E090E078
:1015D000A0E0BFE3F90180839183A283B3838E01EE
:1015E00008591F4FCE018C599F4FFC0160817181BA
:1015F000828193812BEA3AEA4AEA5EE30E94571617
:10160000DC01CB01F80180839183A283B383CE01F7
:1016100088599F4F11E0FC01608171818281938123
:1016200020E030E040E85FE30E945F1888230CF080
:1016300010E0112339F0CE0184599F4F21E0FC01C5
:10164000208305C1CE0188599F4F11E0FC016081C4
:1016500071818281938120E030E04FE753E40E9462
:10166000FF1718160CF010E0112309F4DFC0CE01AB
:101670008C599F4FFC01608171818281938120E0B0
:1016800030E04AE754E40E945117DC01CB019E018F
:1016900023593F4FF90180839183A283B3838E0145
:1016A0000F581F4FCE0183599F4FFC0160817181FC
:1016B0008281938120E030E04AE753E40E9457168C
:1016C000DC01CB01F80180839183A283B383CE0137
:1016D0008F589F4F11E0FC0160817181828193815D
:1016E00020E030E040E85FE30E945F1888230CF0C0
:1016F00010E0112349F0CE018B589F4F21E030E0DC
:10170000FC013183208374C0CE018F589F4F11E0BC
:10171000FC01608171818281938120E03FEF4FE77E
:1017200057E40E94FF1718160CF010E0112309F47B
:101730004DC0CE0183599F4FFC0160817181828130
:10174000938120E030E040E251E40E945716DC0132
:10175000CB018E010B581F4FBC01CD010E94831499
:10176000DC01CB01F8019183808327C0CE01895829
:101770009F4F29E130E0FC0131832083CE0189585D
:101780009F4FFC01808191818C01C8010197F1F785
:101790008C01CE0189589F4FFC0111830083CE013B
:1017A0008B589F4F9E012B583F4FF901208131816B
:1017B00021503040FC0131832083CE018B589F4F54
:1017C000FC0180819181009789F658C08E010B58E9
:1017D0001F4FCE018F589F4FFC0160817181828124
:1017E00093810E948314DC01CB01F80191838083F3
:1017F000CE0187589F4F9E012B583F4FF901208102
:101800003181FC0131832083CE0187589F4FFC0139
:10181000808191818C01C8010197F1F78C01CE0183
:1018200087589F4FFC011183008328C08E01045903
:101830001F4FCE0188599F4FFC01608171818281C9
:1018400093810E948314DC01CB01F8018083CE01D7
:1018500085589F4F9E0124593F4FF9012081FC017B
:101860002083CE0185589F4FFC018081182F1A9547
:10187000F1F7CE0185589F4FFC01108386E390E07D
:10188000FC0180818A838A818F708A8399818A8111
:10189000892B8983898180788B839E0124583F4FCF
:1018A00080E090E0A0E0BFE3F90180839183A28310
:1018B000B3838E0100581F4FCE0184589F4FFC0107
:1018C00060817181828193812BEA3AEA4AEA5EE380
:1018D0000E945716DC01CB01F80180839183A2831B
:1018E000B383CE0180589F4F11E0FC01608171816C
:1018F0008281938120E030E040E85FE30E945F183E
:1019000088230CF010E0112339F0CE018C579F4F43
:1019100021E0FC01208305C1CE0180589F4F11E0DA
:10192000FC01608171818281938120E030E04FE78A
:1019300053E40E94FF1718160CF010E0112309F46D
:10194000DFC0CE0184589F4FFC016081718182818C
:10195000938120E030E04AE754E40E945117DC0113
:10196000CB019E012B573F4FF90180839183A283C6
:10197000B3838E0107571F4FCE018B579F4FFC013A
:10198000608171818281938120E030E04AE753E4F5
:101990000E945716DC01CB01F80180839183A2835A
:1019A000B383CE0187579F4F11E0FC0160817181A5
:1019B0008281938120E030E040E85FE30E945F187D
:1019C00088230CF010E0112349F0CE0183579F4F7C
:1019D00021E030E0FC013183208374C0CE018757C1
:1019E0009F4F11E0FC01608171818281938120E031
:1019F0003FEF4FE757E40E94FF1718160CF010E076
:101A0000112309F44DC0CE018B579F4FFC0160811B
:101A100071818281938120E030E040E251E40E94B4
:101A20005716DC01CB018E0103571F4FBC01CD01BE
:101A30000E948314DC01CB01F8019183808327C0CD
:101A4000CE0181579F4F29E130E0FC013183208393
:101A5000CE0181579F4FFC01808191818C01C8018B
:101A60000197F1F78C01CE0181579F4FFC01118343
:101A70000083CE0183579F4F9E0123573F4FF901AB
:101A80002081318121503040FC0131832083CE01FF
:101A900083579F4FFC0180819181009789F658C040
:101AA0008E0103571F4FCE0187579F4FFC01608166
:101AB0007181828193810E948314DC01CB01F80142
:101AC00091838083CE018F569F4F9E0123573F4FB6
:101AD000F90120813181FC0131832083CE018F56B1
:101AE0009F4FFC01808191818C01C8010197F1F722
:101AF0008C01CE018F569F4FFC011183008328C0BB
:101B00008E010C571F4FCE0180589F4FFC01608102
:101B10007181828193810E948314DC01CB01F801E1
:101B20008083CE018D569F4F9E012C573F4FF90168
:101B30002081FC012083CE018D569F4FFC018081C6
:101B4000182F1A95F1F7CE018D569F4FFC01108387
:101B500088E390E028E330E0F90120812F7EFC014A
:101B600020839E012C563F4F80E090E0A0E8BFE329
:101B7000F90180839183A283B3838E0108561F4F9E
:101B8000CE018C569F4FFC016081718182819381CF
:101B90002BEA3AEA4AEA5EE30E945716DC01CB01DF
:101BA000F80180839183A283B383CE0188569F4F2F
:101BB00011E0FC01608171818281938120E030E03D
:101BC00040E85FE30E945F1888230CF010E01123C7
:101BD00039F0CE0184569F4F21E0FC01208305C1DE
:101BE000CE0188569F4F11E0FC0160817181828196
:101BF000938120E030E04FE753E40E94FF1718166E
:101C00000CF010E0112309F4DFC0CE018C569F4F79
:101C1000FC01608171818281938120E030E04AE79C
:101C200054E40E945117DC01CB019E0123563F4F23
:101C3000F90180839183A283B3838E010F551F4FD7
:101C4000CE0183569F4FFC01608171818281938117
:101C500020E030E04AE753E40E945716DC01CB0154
:101C6000F80180839183A283B383CE018F559F4F68
:101C700011E0FC01608171818281938120E030E07C
:101C800040E85FE30E945F1888230CF010E0112306
:101C900049F0CE018B559F4F21E030E0FC013183AC
:101CA000208374C0CE018F559F4F11E0FC016081ED
:101CB00071818281938120E03FEF4FE757E40E94DA
:101CC000FF1718160CF010E0112309F44DC0CE01D7
:101CD00083569F4FFC01608171818281938120E056
:101CE00030E040E251E40E945716DC01CB018E0146
:101CF0000B551F4FBC01CD010E948314DC01CB01A9
:101D0000F8019183808327C0CE0189559F4F29E137
:101D100030E0FC0131832083CE0189559F4FFC01C7
:101D2000808191818C01C8010197F1F78C01CE016E
:101D300089559F4FFC0111830083CE018B559F4F26
:101D40009E012B553F4FF9012081318121503040B8
:101D5000FC0131832083CE018B559F4FFC01808194
:101D60009181009789F658C08E010B551F4FCE0107
:101D70008F559F4FFC0160817181828193810E9408
:101D80008314DC01CB01F80191838083CE01875558
:101D90009F4F9E012B553F4FF90120813181FC015E
:101DA00031832083CE0187559F4FFC018081918133
:101DB0008C01C8010197F1F78C01CE0187559F4F27
:101DC000FC011183008328C08E0104561F4FCE01F1
:101DD00088569F4FFC0160817181828193810E94AE
:101DE0008314DC01CB01F8018083CE0185559F4F20
:101DF0009E0124563F4FF9012081FC012083CE0132
:101E000085559F4FFC018081182F1A95F1F7CE015F
:101E100085559F4FFC0110838B81882309F04EC8A4
:101E200082E390E022E330E0F90120812F7BFC0186
:101E3000208387E390E027E330E0F90120812F60E1
:101E4000FC012083C555DF4F0FB6F894DEBF0FBEEF
:101E5000CDBFCF91DF911F910F9108950F931F93E5
:101E6000DF93CF93CDB7DEB7C855D0400FB6F89407
:101E7000DEBF0FBECDBF9E01285A3F4FF9018083C0
:101E800080E090E0A0EFB1E48A839B83AC83BD83C4
:101E90006A817B818C819D8120E030E04AE753E4B8
:101EA0000E945716DC01CB018E839F83A887B987D8
:101EB00011E06E817F818885998520E030E040E8DF
:101EC0005FE30E945F1888230CF010E0112329F0D3
:101ED00081E090E09B878A8746C011E06E817F8118
:101EE0008885998520E03FEF4FE757E40E94FF1770
:101EF00018160CF010E0112361F16A817B818C814E
:101F00009D8120E030E040E251E40E945716DC0160
:101F1000CB01BC01CD010E948314DC01CB019B8766
:101F20008A8712C089E190E09D878C878C859D858A
:101F30008C01C8010197F1F78C011D870C878A85F8
:101F40009B8501979B878A878A859B85009751F798
:101F500017C06E817F81888599850E948314DC017A
:101F6000CB019B878A878A859B859F878E878E85F5
:101F70009F858C01F8013197F1F78F011F870E873C
:101F800087E390E027E330E0F90120812F60FC0136
:101F9000208387E390E027E330E0F901208120618E
:101FA000FC01208381E390E021E330E0F90120810E
:101FB0002860FC01208381E390E021E330E0F90117
:101FC00020812064FC01208388E390E028E330E056
:101FD000F9012081207FFC01208388E390E028E341
:101FE00030E0F90120812F7EFC01208382E390E024
:101FF00022E330E0F90120812F7BFC01208382E382
:1020000090E022E330E0F9012081277FFC0120836A
:102010008AE999E9A9E9BEE3888B998BAA8BBB8BE6
:10202000688979898A899B892BEA3AEA4AEA5EE3D8
:102030000E945716DC01CB018C8B9D8BAE8BBF8B26
:1020400011E06C897D898E899F8920E030E040E82D
:102050005FE30E945F1888230CF010E0112319F051
:1020600081E0888FA3C011E06C897D898E899F896A
:1020700020E030E04FE753E40E94FF1718160CF001
:1020800010E0112309F489C0688979898A899B89BC
:1020900020E030E04AE754E40E945117DC01CB0114
:1020A000898F9A8FAB8FBC8F698D7A8D8B8D9C8D2C
:1020B00020E030E04AE753E40E945716DC01CB01F0
:1020C0008D8F9E8FAF8FB8A311E06D8D7E8D8F8D1C
:1020D00098A120E030E040E85FE30E945F18882389
:1020E0000CF010E0112329F081E090E09AA389A37D
:1020F00046C011E06D8D7E8D8F8D98A120E03FEF61
:102100004FE757E40E94FF1718160CF010E0112358
:1021100061F1698D7A8D8B8D9C8D20E030E040E2FD
:1021200051E40E945716DC01CB01BC01CD010E9495
:102130008314DC01CB019AA389A312C089E190E04A
:102140009CA38BA38BA19CA18C01C8010197F1F7E3
:102150008C011CA30BA389A19AA101979AA389A31F
:1021600089A19AA1009751F728C06D8D7E8D8F8D22
:1021700098A10E948314DC01CB019AA389A389A1B1
:102180009AA19EA38DA38DA19EA18C01F8013197E8
:10219000F1F78F011EA30DA310C06C897D898E8974
:1021A0009F890E948314DC01CB01888F888D8FA3C7
:1021B0008FA1182F1A95F1F71FA388E390E028E369
:1021C00030E0F90120812061FC01208388E390E068
:1021D00028E330E0F90120812260FC01208380E0C7
:1021E00090E0A0E8BFE388A799A7AAA7BBA768A526
:1021F00079A58AA59BA52BEA3AEA4AEA5EE30E9402
:102200005716DC01CB018CA79DA7AEA7BFA711E095
:102210006CA57DA58EA59FA520E030E040E85FE39A
:102220000E945F1888230CF010E0112319F081E060
:1022300088ABA3C011E06CA57DA58EA59FA520E06D
:1022400030E04FE753E40E94FF1718160CF010E03F
:10225000112309F489C068A579A58AA59BA520E06A
:1022600030E04AE754E40E945117DC01CB0189AB0E
:102270009AABABABBCAB69A97AA98BA99CA920E0AE
:1022800030E04AE753E40E945716DC01CB018DABE6
:102290009EABAFABB8AF11E06DA97EA98FA998AD89
:1022A00020E030E040E85FE30E945F1888230CF0F4
:1022B00010E0112329F081E090E09AAF89AF46C089
:1022C00011E06DA97EA98FA998AD20E03FEF4FE7FF
:1022D00057E40E94FF1718160CF010E0112361F16B
:1022E00069A97AA98BA99CA920E030E040E251E4D9
:1022F0000E945716DC01CB01BC01CD010E94831462
:10230000DC01CB019AAF89AF12C089E190E09CAFAC
:102310008BAF8BAD9CAD8C01C8010197F1F78C019F
:102320001CAF0BAF89AD9AAD01979AAF89AF89AD5C
:102330009AAD009751F728C06DA97EA98FA998ADD5
:102340000E948314DC01CB019AAF89AF89AD9AADAD
:102350009EAF8DAF8DAD9EAD8C01F8013197F1F739
:102360008F011EAF0DAF10C06CA57DA58EA59FA5DA
:102370000E948314DC01CB0188AB88A98FAF8FAD9D
:10238000182F1A95F1F71FAF88E390E028E330E0AB
:10239000F90120812F7EFC0120839E01205C3F4FAC
:1023A00080E090E0A0E8BFE3F90180839183A283FD
:1023B000B3838E010C5B1F4FCE01805C9F4FFC01ED
:1023C00060817181828193812BEA3AEA4AEA5EE375
:1023D0000E945716DC01CB01F80180839183A28310
:1023E000B383CE018C5B9F4F11E0FC016081718152
:1023F0008281938120E030E040E85FE30E945F1833
:1024000088230CF010E0112339F0CE01885B9F4F38
:1024100021E0FC01208305C1CE018C5B9F4F11E0C0
:10242000FC01608171818281938120E030E04FE77F
:1024300053E40E94FF1718160CF010E0112309F462
:10244000DFC0CE01805C9F4FFC0160817181828181
:10245000938120E030E04AE754E40E945117DC0108
:10246000CB019E01275B3F4FF90180839183A283BB
:10247000B3838E01035B1F4FCE01875B9F4FFC012F
:10248000608171818281938120E030E04AE753E4EA
:102490000E945716DC01CB01F80180839183A2834F
:1024A000B383CE01835B9F4F11E0FC01608171819A
:1024B0008281938120E030E040E85FE30E945F1872
:1024C00088230CF010E0112349F0CE018F5A9F4F62
:1024D00021E030E0FC013183208374C0CE01835BB6
:1024E0009F4F11E0FC01608171818281938120E026
:1024F0003FEF4FE757E40E94FF1718160CF010E06B
:10250000112309F44DC0CE01875B9F4FFC01608110
:1025100071818281938120E030E040E251E40E94A9
:102520005716DC01CB018E010F5A1F4FBC01CD01A4
:102530000E948314DC01CB01F8019183808327C0C2
:10254000CE018D5A9F4F29E130E0FC013183208379
:10255000CE018D5A9F4FFC01808191818C01C80171
:102560000197F1F78C01CE018D5A9F4FFC01118329
:102570000083CE018F5A9F4F9E012F5A3F4FF90182
:102580002081318121503040FC0131832083CE01F4
:102590008F5A9F4FFC0180819181009789F658C026
:1025A0008E010F5A1F4FCE01835B9F4FFC0160814C
:1025B0007181828193810E948314DC01CB01F80137
:1025C00091838083CE018B5A9F4F9E012F5A3F4F9C
:1025D000F90120813181FC0131832083CE018B5AA6
:1025E0009F4FFC01808191818C01C8010197F1F717
:1025F0008C01CE018B5A9F4FFC011183008328C0B0
:102600008E01085B1F4FCE018C5B9F4FFC016081E8
:102610007181828193810E948314DC01CB01F801D6
:102620008083CE01895A9F4F9E01285B3F4FF9015D
:102630002081FC012083CE01895A9F4FFC018081BB
:10264000182F1A95F1F7CE01895A9F4FFC0110837C
:102650000E946006CE01885A9F4FFC0180818C60E9
:1026600060E00E94410088E260E00E94410080E456
:1026700060E00E94410019820DC08981882F90E09E
:10268000805A9F4FFC01808161E00E944100898156
:102690008F5F89838981803480F380E060E00E94CD
:1026A0003614C85ADF4F0FB6F894DEBF0FBECDBF49
:1026B000CF91DF911F910F910895DF93CF9300D0B9
:1026C0000F92CDB7DEB79B838A8334C08A819B810A
:1026D000FC018081853211F58A819B8101969B8363
:1026E0008A838A819B81FC018081805389838981CF
:1026F000882344F0898188302CF4898161E00E942C
:10270000410013C085E261E00E9441008A819B8103
:10271000FC01808161E00E94410007C08A819B81A9
:10272000FC01808161E00E9441008A819B810196C9
:102730009B838A838A819B81FC018081882331F677
:102740000F900F900F90CF91DF910895DF93CF936B
:10275000CDB7DEB72D970FB6F894DEBF0FBECDBF55
:102760009B878A877D876C8725E0CE010596FC01D3
:10277000322F11923A95E9F784E090E09A838983A9
:102780001C821B8220C08A859B852AE030E0B9012B
:102790000E94711A482F9E012B5F3F4F89819A81B9
:1027A000820F931FFC0140838A859B852AE030E0DD
:1027B000B9010E94711A9B013B872A8789819A81FE
:1027C00001979A8389838A859B850097E1F68C859A
:1027D0009D85FFEF8F3F9F0791F405C08B819C8102
:1027E00001969C838B839E012B5F3F4F8B819C8145
:1027F000820F931FFC018081882381F30AC025E0AA
:1028000030E08C859D85A901481B590BCA019C832A
:102810008B838A859B85992324F48DE261E00E9455
:1028200041008B819C819A83898312C09E012B5F1A
:102830003F4F89819A81820F931FFC018081805DC7
:1028400061E00E94410089819A8101969A8389837F
:1028500089819A81853091054CF32D960FB6F894B5
:10286000DEBF0FBECDBFCF91DF910895DF93CF9331
:1028700000D0CDB7DEB789836A838981843128F59A
:102880008A81882F90E08130910551F08230910546
:102890009CF08230910541F08330910549F00DC0E4
:1028A00089818064898309C089818C5E898305C0A0
:1028B00089818C5A898301C000008981806889835D
:1028C000898160E00E94410001C000000F900F90DC
:1028D000CF91DF910895DF93CF93CDB7DEB783E03B
:1028E0000E942E0F81E060E00E94410080E060E0E5
:1028F0000E94361480EA90E00E945D1380E090E030
:10290000CF91DF910895EF92FF920F931F937B0178
:102910008C0120E030E040E05FE40E942F1887FD4A
:1029200011C0C801B70120E030E040E05FE40E9440
:1029300026160E948F189B01AC0120503040404069
:10294000504806C0C801B7010E948F189B01AC0116
:10295000B901CA011F910F91FF90EF900895A0E077
:10296000B0E0E5EBF4E10C949C1AFC01EA018081F3
:10297000823008F438C1DB019C91923008F430C1F8
:10298000843059F4943009F02EC1918111968C91C4
:102990001197981709F021C126C1943009F420C17C
:1029A0009230B1F4823009F01EC1CA01AF0128E0B3
:1029B000DA010D90AD01DC010D92CD012150C1F77E
:1029C000DB0111968C9111979181892389830AC12A
:1029D000823009F405C1C280D380DB0112966D906C
:1029E0007C90139724813581468157811496ED9010
:1029F000FD900D911C911797C601861997095C01EE
:102A000097FF04C0AA24BB24A81AB90AB0E2AB16E7
:102A1000B1040CF061C0181619066CF537014801B5
:102A20000A2C04C096948794779467940A94D2F7FA
:102A300081E090E0A0E0B0E00A2C04C0880F991F6C
:102A4000AA1FBB1F0A94D2F70197A109B1098E21D1
:102A50009F21A023B123EE24FF248701E394009754
:102A6000A105B10519F4EE24FF248701E628F72813
:102A7000082919293CC00097D1F1CA0CDB1C390187
:102A80004A010A2C04C096948794779467940A9418
:102A9000D2F781E090E0A0E0B0E00A2C04C0880FFB
:102AA000991FAA1FBB1F0A94D2F70197A109B10968
:102AB00082239323A423B52321E030E040E050E0BB
:102AC0000097A105B10519F420E030E0A9012629FD
:102AD0003729482959290BC06C147D0424F4EE24AD
:102AE000FF24870104C0630120E030E0A901818157
:102AF000FB019181891709F445C0882349F0D80169
:102B0000C701821B930BA40BB50B9C01AD0104C044
:102B10002E193F09400B510B57FD04C01982DB826F
:102B2000CA820BC081E08983DB82CA8250954095BE
:102B3000309521953F4F4F4F5F4F2C833D834E8300
:102B40005F830DC0880F991FAA1FBB1F8C839D83B5
:102B5000AE83BF838A819B8101979B838A838C810B
:102B60009D81AE81BF819C01AD012150304040402C
:102B700050402F3FEFEF3E07EFEF4E07EFE35E07CA
:102B800008F30BC08983DB82CA822E0D3F1D401FD4
:102B9000511F2C833D834E835F8383E088832C8188
:102BA0003D814E815F8157FF1DC0DA01C9018170EF
:102BB0009070A070B0705695479537952795822BE9
:102BC000932BA42BB52B8C839D83AE83BF838A81EB
:102BD0009B8101969B838A8305C0E7EAF0E003C0EE
:102BE000FB0101C0FE01CF01CDB7DEB7EEE00C94D2
:102BF000B81AA0E2B0E0EFEFF5E10C94A41A6983F3
:102C00007A838B839C832D833E834F83588789E00F
:102C1000E82EF12CEC0EFD1ECE010196B7010E94AC
:102C2000AF198E010F5E1F4FCE010596B8010E94AD
:102C3000AF19C701B801AE01475E5F4F0E94AF14E4
:102C40000E94E118A096E6E00C94C01AA0E2B0E061
:102C5000ECE2F6E10C94A41A69837A838B839C835B
:102C60002D833E834F8358878E01075F1F4FCE0110
:102C70000196B8010E94AF1991E1E92EF12CEC0EFA
:102C8000FD1ECE010596B7010E94AF198A8991E019
:102C900089278A8BC801B701AE01475E5F4F0E944A
:102CA000AF140E94E118A096E6E00C94C01AA0E2CE
:102CB000B0E0EDE5F6E10C94981A69837A838B8392
:102CC0009C832D833E834F835887CE010196BE019E
:102CD000675F7F4F0E94AF19CE010596BE016F5E00
:102CE0007F4F0E94AF199985923078F089898230A0
:102CF000C0F0943019F4823041F4CBC0843019F420
:102D0000923079F4C6C0923051F481E02A859A89D4
:102D1000291709F480E08A87CE010996BCC0823069
:102D200051F481E02A859A89291709F480E08A8B79
:102D3000CE014196B0C06D847E848F849888ED88E2
:102D4000FE880F89188DE0E2F0E080E090E0DC0181
:102D5000AA24BB24650120E030E0A901B301617021
:102D6000707061157105D1F02E0D3F1D401F511F70
:102D700015012601280E391E4A1E5B1E81E090E0D7
:102D8000A0E0B0E02E153F054007510718F080E0A5
:102D900090E0DC01820D931DA41DB51DAA0CBB1C87
:102DA000CC1CDD1C17FF09C061E0262E312C412C04
:102DB000512CA228B328C428D528319749F0EE0C0D
:102DC000FF1C001F111F9694879477946794C6CFB9
:102DD0006B897C89EB85FC856E0F7F1F6E5F7F4F53
:102DE0007C8F6B8F61E0EA857A89E71709F460E0F0
:102DF0006A8F6B8D7C8D10C0FC01E170F070309794
:102E000029F056954795379527955068B695A7951B
:102E1000979587956F5F7F4FB7FDEECF0CC0880FFA
:102E2000991FAA1FBB1F57FD8160220F331F441F2C
:102E3000551F615070408030E0E09E07E0E0AE0733
:102E4000E0E4BE0760F36B8F7C8F6FE7E62EF12C1A
:102E5000012D112DE822F9220A231B2360E4E61636
:102E6000F1040105110561F487FD0AC02115310542
:102E70004105510529F0805C9F4FAF4FBF4F8078CF
:102E80008D8F9E8FAF8FB8A383E0898FCE01499637
:102E900002C087EA90E00E94E118A096E2E10C945B
:102EA000B41AA8E1B0E0E7E5F7E10C94A01A698351
:102EB0007A838B839C832D833E834F8358878E0137
:102EC000075F1F4FCE010196B8010E94AF1981E143
:102ED000E82EF12CEC0EFD1ECE010596B7010E94E6
:102EE000AF199985923008F483C08989823008F43B
:102EF0007BC02A853A8923272A87943011F09230A3
:102F000021F4981709F06CC071C0843039F41D8623
:102F10001E861F86188A1C861B866AC0823019F49A
:102F200084E0898765C08B859C852B893C89821BC1
:102F3000930B9C878B872D853E854F855889ED881F
:102F4000FE880F89188D2E153F054007510738F46C
:102F5000220F331F441F551F01979C878B876FE1FA
:102F600070E0A12CB12CC12CA0E4DA2E80E090E01E
:102F7000DC012E153F054007510740F08A299B29A7
:102F8000AC29BD292E193F09400B510BD694C7948B
:102F9000B794A794220F331F441F551F61507040F0
:102FA00041F76FE7E62EF12C012D112DE822F922D1
:102FB0000A231B2360E4E616F1040105110561F400
:102FC00087FD0AC0211531054105510529F0805CB6
:102FD0009F4FAF4FBF4F80788D879E87AF87B88B4D
:102FE0008E01075F1F4F04C0870102C007EA10E08F
:102FF000C8010E94E1186896EAE00C94BC1AA8E1A6
:10300000B0E0E5E0F8E10C94A41A69837A838B833D
:103010009C832D833E834F8358878E01075F1F4F0C
:10302000CE010196B8010E94AF1981E1E82EF12C82
:10303000EC0EFD1ECE010596B7010E94AF198985E1
:10304000823040F08989823028F0C801B7010E949F
:10305000181A01C08FEF6896E6E00C94C01AA8E138
:10306000B0E0E5E3F8E10C94A41A69837A838B83DA
:103070009C832D833E834F8358878E01075F1F4FAC
:10308000CE010196B8010E94AF1981E1E82EF12C22
:10309000EC0EFD1ECE010596B7010E94AF19898581
:1030A000823040F08989823028F0C801B7010E943F
:1030B000181A01C08FEF6896E6E00C94C01AA8E1D8
:1030C000B0E0E5E6F8E10C94A41A69837A838B8377
:1030D0009C832D833E834F8358878E01075F1F4F4C
:1030E000CE010196B8010E94AF1981E1E82EF12CC2
:1030F000EC0EFD1ECE010596B7010E94AF19898521
:10310000823040F08989823028F0C801B7010E94DE
:10311000181A01C081E06896E6E00C94C01AACE091
:10312000B0E0E5E9F8E10C94A81A69837A838B830F
:103130009C83CE010196BE016B5F7F4F0E94AF1949
:103140008D81823081F1823070F1843021F48E8162
:10315000882369F10AC02F81388537FD24C06E812C
:103160002F3131053CF0662311F120E030E040E0E2
:1031700050E821C08EE190E0821B930B29853A85AF
:103180004B855C8504C056954795379527958A955C
:10319000D2F7662381F050954095309521953F4FA9
:1031A0004F4F5F4F08C020E030E0A90104C02FEF6F
:1031B0003FEF4FEF5FE7B901CA012C96E2E00C94B4
:1031C000C41AEF92FF920F931F93CF93DF93FC01EA
:1031D000248135814681578161818081823020F44C
:1031E0004061EFEFF0E0A3C0843009F49BC082306F
:1031F00009F492C0211531054105510509F48FC02C
:103200000280F381E02D8FEFE238F8070CF05AC00E
:10321000C2E8DFEFCE1BDF0BCA31D1056CF57901B7
:103220008A010C2E04C016950795F794E7940A942A
:10323000D2F781E090E0A0E0B0E00C2E04C0880F4F
:10324000991FAA1FBB1F0A94D2F70197A109B109C0
:1032500082239323A423B52321E030E040E050E013
:103260000097A105B10519F420E030E0A9012E294D
:103270003F29402B512B03C020E030E0A901DA01A7
:10328000C9018F779070A070B07080349105A1054E
:10329000B10539F427FF09C0205C3F4F4F4F5F4F06
:1032A00004C0215C3F4F4F4F5F4FE1E0F0E0203022
:1032B00080E0380780E0480780E4580728F5E0E020
:1032C000F0E022C0E038F1056CF5E158FF4FDA017B
:1032D000C9018F779070A070B07080349105A105FE
:1032E000B10539F427FF09C0205C3F4F4F4F5F4FB6
:1032F00004C0215C3F4F4F4F5F4F57FF05C05695AD
:10330000479537952795319687E056954795379598
:1033100027958A95D1F70BC0E0E0F0E005C0E0E02A
:10332000F0E005C0EFEFF0E020E030E0A9018E2FE3
:10333000879588278795942F9F7767956627679548
:10334000E695E22EA92FA82BFE2FF62B622F732FC6
:103350008A2F9F2FCDB7DEB7E6E00C94C01ADC01B0
:10336000FB012C9111963C91119712968C9112971A
:10337000482F4F7750E0982F991F9927991F139640
:103380006C911397862F880F892B90E0661F662714
:10339000661F6183009739F52115310541055105F7
:1033A00011F482E029C082E89FEF9383828367E073
:1033B000220F331F441F551F6A95D1F783E0808386
:1033C00009C0220F331F441F551F8281938101972B
:1033D00093838283203080E0380780E0480780E4D0
:1033E000580778F320C08F3F910579F421153105F6
:1033F0004105510519F484E08083089544FF03C01A
:1034000081E0808310C010820EC08F57904093835C
:10341000828383E0808387E0220F331F441F551F80
:103420008A95D1F750642483358346835783089562
:10343000FC01DB019081923008F449C08C9182300C
:1034400008F445C0943051F461818430B1F511968F
:103450002C91119730E0261B310941C0843021F0B6
:10346000923041F48230B1F111968C9111978823FA
:10347000A1F12DC06181823001F111968C911197DB
:103480006817D9F42281338112968D919C911397FC
:103490008217930794F028173907BCF024813581EF
:1034A0004681578114968D919D910D90BC91A02DD0
:1034B00082179307A407B50718F4662341F00DC0DF
:1034C000281739074A075B0728F4662331F021E003
:1034D00030E005C020E030E002C02FEF3FEFC9012F
:1034E000089597FB092E07260AD077FD04D00CD04B
:1034F00006D000201AF4709561957F4F0895F6F775
:10350000909581959F4F0895AA1BBB1B51E107C061
:10351000AA1FBB1FA617B70710F0A61BB70B881F63
:10352000991F5A95A9F780959095BC01CD010895F2
:103530002F923F924F925F926F927F928F929F92C3
:10354000AF92BF92CF92DF92EF92FF920F931F93B1
:10355000CF93DF93CDB7DEB7CA1BDB0B0FB6F89462
:10356000DEBF0FBECDBF09942A88398848885F84A2
:103570006E847D848C849B84AA84B984C884DF8013
:10358000EE80FD800C811B81AA81B981CE0FD11DF7
:103590000FB6F894DEBF0FBECDBFED010895F894CD
:0235A000FFCF5B
:1035A2000C12120C000000000C1204081E00000095
:1035B2000A15110A040000000305090B0B18180074
:1035C2001F0E0E040404040401010505151515005F
:1035D2000E11111F1F1F1F0000000000000000003D
:1035E20048656C6C6F2100000000000000000000C4
:00000001FF
