:100000000C942A000C9434000C9434000C943400AA
:100010000C9434000C9434000C9434000C94340090
:100020000C9434000C9434000C9434000C94340080
:100030000C9434000C9434000C9434000C94340070
:100040000C9434000C9434000C9434000C94340060
:100050000C94340011241FBECFE5D8E0DEBFCDBF25
:100060000E9436000C9451000C940000DF93CF9353
:10007000CDB7DEB784E390E0FC01108287E390E027
:100080002FEFFC01208385E390E02FEFFC0120831C
:1000900088E390E023E330E0F9012081FC01208334
:0600A000F7CFF894FFCF3A
:00000001FF
